:020000040800F2
:10000000000005206505000899050008990500080D
:1000100099050008990500089905000800000000EE
:10002000000000000000000000000000990500082A
:1000300099050008000000009905000899050008CE
:100040009905000899050008990500089905000818
:100050009905000899050008990500089905000808
:1000600099050008990500089905000899050008F8
:1000700099050008990500089905000899050008E8
:100080009905000899050008990500089D060008D3
:10009000A1060008990500089106000899050008C6
:1000A00099050008990500089905000899050008B8
:1000B00099050008990500089905000899050008A8
:1000C0009905000899050008990500089905000898
:1000D0009905000899050008990500089905000888
:1000E0009905000899050008990500089905000878
:1000F0009905000899050008990500089905000868
:100100009905000899050008990500089905000857
:100110009905000899050008990500089905000847
:100120009905000899050008990500089905000837
:10013000990500089905000899050008B10600080E
:10014000B506000899050008A506000899050008ED
:100150009905000899050008990500089905000807
:1001600099050008990500089905000899050008F7
:10017000990500089905000899050008000000008D
:1001800099050008990500089905000899050008D7
:1001900099050008990500089905000899050008C7
:1001A00099050008990500089905000899050008B7
:1001B00099050008990500089905000899050008A7
:1001C000990500089905000810B5054C237833B946
:1001D000044B13B10448AFF300800123237010BD1A
:1001E000900C002000000000E8AA000808B5034BAE
:1001F0001BB103490348AFF3008008BD00000000B5
:10020000940C0020E8AA0008154B002B08BF134BE4
:100210009D46A3F5803A00218B460F461348144AA9
:10022000121A03F087FD0F4B002B00D098470E4B9E
:10023000002B00D098470020002104000D000D483D
:10024000002802D00C4800F048FD03F0D7FB200046
:10025000290000F0ADFE00F03DFD00BF00000800E9
:100260000000052000000000A10F0008900C0020F5
:1002700024120020DB0C000800000000036882B09C
:100280000E4A93420BD10E4B1A6C42F002021A64D2
:100290001B6C03F002030093009B02B07047094AF5
:1002A0009342FAD1064B1A6C42F004021A641B6C9A
:1002B00003F004030193019BEFE700BF000400403B
:1002C00000380240000800407FB503680B4A9342A3
:1002D0000FD1102300220193022301A90848CDE980
:1002E00002320322CDE9042301F0A0F907B05DF842
:1002F00004FB044A9342F9D14023EBE70004004099
:10030000000402400008004008B5044B02461C6887
:100310000B460349E06803F01FFBFEE7DC02002008
:1003200074A10008794B7A4A1B687A48B3FBF2F350
:100330002DE9F04F013B784F784E99B03B800B236D
:10034000774D338041F28933764C2B8042F2117322
:10035000DFF8ECA1238003F037FD23882A88318859
:10036000714803F031FD714B218850461A6B42F001
:1003700080021A631A6B02F080020392039A1A6BCE
:1003800042F002021A636A4A1B6BCAF800203A88DC
:1003900003F00203CAF8042000220493049BCAF865
:1003A0000820CAF81820CAE9031202F045F818B16B
:1003B0005C216048FFF7A8FF18AC4FF48059504605
:1003C00044F8309D214602F06FF908B16221F0E750
:1003D000504602F065F808B16721EAE74FF02008BF
:1003E0000A9050460DEB0801CDF8208002F0ACFADF
:1003F000024608B16E21DCE7602115901191318829
:10040000CDE9121011A9504602F0C4FA08B17721C3
:10041000CFE701905046FFF757FF474E474B019AF1
:10042000304633603B88B26073602B88B261C6E9A6
:10043000033202F001F808B18F21BAE708A930466B
:10044000CDF8209002F030F908B19521B1E730469F
:1004500002F026F808B19A21ABE70821304602F0F5
:1004600039F808B19F21A4E7062321463046CDE99B
:100470000C3802F0A7F908B1A6219AE7002305A9D4
:100480002D480593079302F05FFA024608B1AD21AB
:100490008FE7602321491590098811932B882648FE
:1004A0005B1A11A912930223139302F073FA044604
:1004B00008B1B6217DE72048FFF706FF2048FFF787
:1004C000DDFE1D48FFF7DAFE1B4801F01CFF214648
:1004D000194802F0CDF92146174801F025FF1848C8
:1004E00001F011FF2146174C154802F0C1F963686D
:1004F0004FF07E501A6823681A421ABFE2681B0444
:10050000A268136003F092F8F1E700BFD402002064
:10051000002D310191A10008500D0020AE0C0020EB
:10052000B00C0020AC0C0020BBA100080038024039
:1005300000040040E4A10008F40C00200008004082
:10054000B40C0020340D002008B5054B00211C22FE
:10055000184603F0EFFB1021BDE8084002F01EBE74
:10056000340D0020DFF820D0002103E0074B5B585A
:10057000435004310648074B42189A42F6D302F022
:10058000D3FCFFF741FE704700000520F4AA0008E5
:10059000C8010020900C0020FEE7000043692DE90F
:1005A000F0410D46D907044628D58168334F82684B
:1005B00039408368324E3348B94202EA060203EA00
:1005C000000301D10127A760B24202D14FF4807627
:1005D000A660834202D14FF48030A0602748814258
:1005E00005D027498A4202D0264A934206D1264B9B
:1005F0000121264A1B6852F825009847E268636982
:10060000920708D09F0706D51F4B00211F4A1B6881
:1006100052F825009847A16962698E0763690AD577
:10062000900508D5190406D5174B0521174A1B68F4
:1006300052F825009847A769666917F004076269B0
:1006400006F4806609D046B1120406D50E4B072188
:100650000E4A1B6852F82500984763695FB156B18E
:100660001B0408D5084B0221084A1B6852F82500D4
:10067000BDE8F0411847BDE8F08100BF0300000469
:1006800000030008000003105C0D0020540D002042
:1006900000210148FFF782BF00640040FFF7F8BF68
:1006A000FFF7F6BF01210148FFF778BF006800405F
:1006B000FFF7F8BFFFF7F6BF00B58DB00A2800F2CC
:1006C0008E80DFE800F00614202C3844505C6874FB
:1006D0008000454B45481A6B42F001021A631B6BC0
:1006E00003F001030193019B0DB05DF804FB3E4B49
:1006F0003F481A6B42F002021A631B6B03F00203BD
:100700000293029BF0E7384B3A481A6B42F004021E
:100710001A631B6B03F004030393039BE4E7324B60
:1007200035481A6B42F008021A631B6B03F008038A
:100730000493049BD8E72C4B30481A6B42F010020C
:100740001A631B6B03F010030593059BCCE7264B44
:100750002B481A6B42F020021A631B6B03F0200334
:100760000693069BC0E7204B26481A6B42F04002D6
:100770001A631B6B03F040030793079BB4E71A4B04
:1007800021481A6B42F080021A631B6B03F080034E
:100790000893089BA8E7144B1C481A6B42F480721C
:1007A0001A631B6B03F480730993099B9CE70E4B40
:1007B00017481A6B42F400721A631B6B03F4007340
:1007C0000A930A9B90E7084B12481A6B42F4806226
:1007D0001A631B6B03F480630B930B9B84E70E4837
:1007E00002F0FEFE00207FE70038024000000240D9
:1007F0000004024000080240000C024000100240C9
:100800000014024000180240001C02400020024078
:1008100000240240002802401CA30008431C10B51D
:10082000044604D174220649064802F0C7FE204659
:10083000002100F0E1FB04F00F040120A04010BDF6
:100840003DA3000895A3000870B54B1C04460E4656
:10085000218216D0C1F30310FFF72EFF0546304664
:10086000FFF7DCFF238A074A03F00F03656120606E
:1008700052F82330A36105F1100318356360A560B9
:10088000E56070BDB8A40008B0F9100000F04EBCDF
:1008900010B58369446971B9216893FAA3F2B2FA79
:1008A00082F20320520000FA02F221EA020293FAD5
:1008B000A3F3226010BD226893FAA3F1B1FA81F18B
:1008C00093FAA3F303204900B3FA83F300FA01F18A
:1008D0005B0022EA0102012101FA03F313432360C2
:1008E00010BD000070B5134C23681A69950707D531
:1008F000DA68900704D56FF002021A6102F020FC5A
:1009000023681A69510713D5DA68520710D56FF0BA
:100910000402094E1A615D6A3368EB1AB3F57A7FF7
:1009200006D300F05FFE236805F57A729A6335609E
:1009300070BD00BFBC110020600D002030B589B033
:10094000284C01A903A801F013FA01F0F1F9264B94
:1009500001901A6C42F008021A641A6C02F0080244
:100960000292029A1A6A42F008021A621A6A22F085
:1009700008021A62A3F50B33069A23604FF0FF3387
:10098000E3601A4B002A2BD10025B0FBF3F00138AD
:100990002561A560606013486561A56101F066FD91
:1009A000134B2946134A9B680E48C3F808214FF49D
:1009B0008022114B5A6001F075FF0421094801F0B3
:1009C00071FF23680D4A2846596A1160126802F5C2
:1009D0007A729A63DA6842F00402DA6009B030BDD4
:1009E0004000D1E7BC1100200038024040420F0017
:1009F00000ED00E0E508000800E100E0600D0020E7
:100A000010B588B002F0B6FD102101A802F0C6FBB7
:100A10000424019A9620039B1A6002F015FE019BA4
:100A2000049A96201B04136002F00EFE013CF0D1E4
:100A30000424019A4FF4C870039B1A6002F004FE6C
:100A4000019B049A4FF4C8701B04136002F0FCFD74
:100A5000013CEED1DCE7000070B50D46A0B00446C5
:100A600002F088FD2B4680212246684604F08CFD6A
:100A7000051E03DC02F094FD20B070BD094B1B681D
:100A800023B939223821084800F038FC0024064EEA
:100A90001DF804100134304600F078FDA542F7D16E
:100AA000E8E700BF740D0020F40D00200FB407B577
:100AB00004A951F8040B0191FFF7CEFF03B05DF8D4
:100AC00004EB04B070470000F8B5274B5A6912F4E4
:100AD000003211D1BFF34F8FBFF36F8FC3F8502295
:100AE000BFF34F8FBFF36F8F5A6942F400325A61E0
:100AF000BFF34F8FBFF36F8F1B4A536913F48033DB
:100B000028D1C2F88430BFF34F8FD2F8803043F63B
:100B1000E076C3F3C904C3F34E33A5075B0103EAD0
:100B2000060E284621464EEA0007013900F14040F2
:100B3000C2F860724F1CF6D1203B13F1200FEED1AA
:100B4000BFF34F8F536943F480335361BFF34F8F2B
:100B5000BFF36F8F02F084FA00F02EFD02F076FAF8
:100B6000BDE8F84002F07CBA00ED00E000207047DC
:100B70000368012200211B691847036800221B69D2
:100B80001146184703681B69184703689B69184793
:100B900003689B6A18474FF0FF30704770476FF04B
:100BA0001C0070476FF0150070470120704700204F
:100BB00070477047F8B515460C468F18054EBC4275
:100BC00005D014F8011B304600F0E0FCF7E728469A
:100BD000F8BD00BFF40D002038B58DB215F001044A
:100BE00005D0084800F0FAFA041C18BF0124EB06EF
:100BF00005D5044800F002FB08B144F0100420467B
:100C000038BD00BFF40D002010B5044602F09AFF75
:100C1000204610BD10B50C462AB1044800F0A4FCD3
:100C20002070012010BD104610BD00BFF40D002043
:100C300038B51D46074B04460360074B1B6833B9A4
:100C4000064800F05BFB2946044800F013FB2046F1
:100C500038BD00BFB0A30008740D0020F40D0020C3
:100C600000207047002070470C4A136810B51844E4
:100C7000EFF30881884205D30C22094B4FF0FF3077
:100C80001A6010BD07490C6824B10749096821445E
:100C90008842F1D21060184610BD00BFCC0200207F
:100CA000201200206C0D0020700D0020074C05461E
:100CB00008B52368986802F0D7FD2368D86802F069
:100CC000D3FD0DB1FFF79CFEFEE700BFDC02002064
:100CD0000120704708B5FFF7E9FF01207047704712
:100CE000704708B5FFF7FBFF08BD08B5FFF7F8FF31
:100CF00008BD000010B50378044603F00303012B80
:100D00000CD02BB140F20F520549064802F056FCB8
:100D10002378012043F00203237010BD002010BD92
:100D2000FCA3000851A4000810B50378044603F0A2
:100D30000303022B05D040F217520549054802F083
:100D40003DFC237823F0030343F00103237010BD1F
:100D5000FCA3000877A400083F2870B504462FDCE8
:100D6000184D55F820305A1C13D1022811DCFFF71A
:100D700079FF034658B92046FFF772FF034630B9A2
:100D8000114E3378BFF35B8FDB0704D50F4B45F86B
:100D90002430184670BD3046FFF7ACFF0028F5D070
:100DA0004FF41653392238210848FFF741FF3046E7
:100DB000FFF7BAFF064A07490448FFF789FFE5E74E
:100DC0000023E6E7CC010020640D0020680D002020
:100DD000C8010020B30B000838B505460024FFF712
:100DE000BBFF0B4B43F8254030B902F05FFC0923F1
:100DF00003604FF0FF3038BD03685B699847051EFC
:100E000004DA6D4202F052FC0560F2E7204638BD7C
:100E1000CC010020FFF7E0BF38B50C461546FFF7C0
:100E20009BFF38B902F042FC092303604FF0FF3406
:100E3000204638BD036821462A46DB689847041ED1
:100E4000F6DA644202F032FC0460EFE708B5131EE4
:100E500006DA02F02BFC162303604FF0FF3008BDCA
:100E600004D0FFF7D9FF40EAE07008BD184608BD7E
:100E700038B50C461546FFF76FFF38B902F016FC7F
:100E8000092303604FF0FF34204638BD0368214634
:100E90002A469B689847041EF6DA644202F006FC74
:100EA0000460EFE7002A08B503DBBDE80840FFF760
:100EB000DFBF02F0FBFB162303604FF0FF3008BDDD
:100EC00010B5FFF749FF044628B902F0EFFB0923EC
:100ED0000360204610BD0368DB699847041EF8DAFA
:100EE000644202F0E3FB04600024F2E7FFF7E8BF8E
:100EF00038B50C461546FFF72FFF38B902F0D6FB80
:100F0000092303604FF0FF34204638BD03682146B3
:100F10002A461B699847041EF6DA644202F0C6FBB3
:100F20000460EFE7FFF7E4BF38B50D46FFF714FFA5
:100F3000044630B902F0BAFB092303604FF0FF30DA
:100F400038BD0368DB6998470028204614BF4FF47A
:100F500000534FF400436B6023689B6A98472861F5
:100F6000002038BDFFF7E0BF00487047F4A3000839
:100F700070477047074B08499A680848043A10B50B
:100F800052F8044F41F8044F8142F9D14FF000521A
:100F90009A6010BD00ED00E0FCFFFF1FC4010020BF
:100FA00008B5FFF7E7FFFFF78FFDFFF7E2FF08BD8A
:100FB00008B5FFF7DDFFBDE80840FFF7B3B930B56E
:100FC000C36891FAA1F4B4FA84F491FAA1F103256B
:100FD000B1FA81F16400490005FA04F402FA01F162
:100FE00023EA04031943C16030BD012A02D0022A5A
:100FF00018BF0022FFF7E3BF2DE9F0410E46411C68
:10100000044604D13E224549454802F0D7FA04F08F
:101010000F08444BC4F3031006F0070753F8285099
:10102000FFF74AFB0446836895FAA5F1B1FA81F10E
:1010300095FAA5F203204900B2FA82F200FA01F112
:10104000520023EA0103022101FA02F21343A360D2
:1010500087425CD8DFE807F0601D021DB8F1070F7A
:10106000C6F303203DD9626A2B0A93FAA3F1B1FAC1
:1010700081F193FAA3F34FF00F0EB3FA83F38900D3
:101080009B000EFA01F100FA03F322EA0102134376
:1010900063623B46226895FAA5F0B0FA80F095FAB3
:1010A000A5F14FF0030EB1FA81F14000013F490074
:1010B0000EFA00F0012F03FA01F322EA000243EADC
:1010C0000203236005D8636832074CBF2B43AB4350
:1010D0006360C6F3011229462046BDE8F041FFF7E0
:1010E00084BF226A95FAA5F3B3FA83F395FAA5F1C2
:1010F0004FF00F0EB1FA81F19B0089000EFA03F355
:1011000022EA030200FA01F313432362C1E76722D4
:101110000249054802F052FA0023BBE7F8A4000890
:1011200095A30008B8A4000833A60008431C70B5B6
:1011300006460D4604D188221B491C4802F03EFA9F
:1011400006F00F021A4BC6F3031053F82240FFF7C4
:10115000B3FA016804FB04F202EB42030B40B3FB59
:10116000F2F3013B012B05D8EB1E022B436809D893
:1011700023434360032D08D101222146BDE870407E
:10118000FFF733BF23EA04034360012DF4D0052D9C
:1011900001D0022D01D10222EFE721460022BDE855
:1011A0007040FFF70CBF00BFF8A4000895A300082B
:1011B000B8A400080FB4074B1B6807B5064905AA79
:1011C000D868019204F05AF903B05DF804EB04B05A
:1011D000704700BFDC0200204EA500084268702363
:1011E0005343054AD358DA69120701D508221A6217
:1011F000D869C0F340107047380E00204268702351
:101200005343034AD358D869C0F3C010704700BF96
:10121000380E00204368702215495A4310B4046800
:101220005318545082685A60C2689A600269DA6042
:1012300042691A610022A3F852209A61DA61A3F888
:101240005020A3F85A20A3F85820B0F91A200132F0
:1012500006D108225A6118465DF8044B01F011BE10
:10126000B0F9182001320CBF04220C22F2E700BFB3
:10127000380E002010B581600C46FFF7CBFF28B177
:1012800021460348BDE81040FFF794BF10BD00BFE2
:101290004EA50008184B98421FD0A3F54C43984226
:1012A0001DD003F5806398421BD003F580639842FC
:1012B00019D003F58063984217D003F54443984250
:1012C00015D0A3F51C43984213D003F580639842D0
:1012D0000CBF07204FF0FF307047002070470120FF
:1012E0007047022070470320704704207047052094
:1012F00070470620704700BF00100140F0B50E4651
:10130000154689B004468849304602F023F907465D
:101310008649284602F01EF90146384602F0FCF8DC
:101320002060013004D138228149824802F046F918
:10133000382E0CD0392D0AD07B49382002F00AF91A
:10134000874202D17C4802F04BF9002700E00127D8
:1013500020687A4B984229D103F594335A6A42F0B7
:1013600010025A625A6A22F010025A625A6C42F013
:1013700010025A645B6C03F010030093009B704BE7
:10138000984240D103F592335A6A42F020025A62E1
:101390005A6A22F020025A625A6C42F020025A64C1
:1013A0005B6C03F020030593059B87E0654B984237
:1013B00013D103F5FA331A6A42F400321A621A6A38
:1013C00022F400321A621A6C42F400321A641B6C66
:1013D00003F400330193019BD1E75B4B984229D181
:1013E00003F5F8331A6A42F480221A621A6A22F468
:1013F00080221A621A6C42F480221A641B6C03F475
:1014000080230293029B514B984229D103F5E0338C
:101410001A6A42F080421A621A6A22F080421A6204
:101420001A6C42F080421A641B6C03F080430693EE
:10143000069B43E0464B984229D103F5F6331A6ADE
:1014400042F400221A621A6A22F400221A621A6C0A
:1014500042F400221A641B6C03F400230393039BE1
:101460003C4B98422AD103F5DE331A6A42F000421F
:101470001A621A6A22F000421A621A6C42F00042A2
:101480001A641B6C03F000430793079B16E0324B72
:1014900098427FF474AF03F5F4331A6A42F4801271
:1014A0001A621A6A22F480121A621A6C42F48012CA
:1014B0001A641B6C03F480130493049BFFF7EAFE89
:1014C0000028606004DABE221949244802F076F848
:1014D0001549304602F002F81449284601F0FEFF93
:1014E000721C03D001213046FFF720FE6B1C03D095
:1014F00001212846FFF71AFE4FF416532683658311
:101500002046A3600023E36023616361FFF782FE4E
:101510003FB10122124B214612481A60442202F0C8
:101520006FFB09B0F0BD00BF80A20008F0A1000869
:1015300078A50008D2A50008EEA50008001001401B
:101540000014014000440040004800400078004082
:10155000004C0040007C00400050004023A60008E2
:10156000740D0020F40D002038B50446456820466F
:10157000FFF734FE0028FAD07023034A6B43D35898
:10158000586AC0F3080038BD380E002070B5054613
:101590000C4646682846FFF731FE0028FAD0702333
:1015A000034AC4F308047343D3589C6270BD00BF60
:1015B000380E00207047000008B5094B03201A6858
:1015C00042F400721A601A6842F480721A6000F0E5
:1015D0001BF80F20FFF7B2F9FFF7ECFF002008BD62
:1015E000003C0240034A044B11681B780B44136013
:1015F000704700BFB8110020D0020020014B1868CE
:10160000704700BFB8110020074A0002D36800F4F9
:10161000E06023F4E0631B041B0C43F0BF6343F45E
:1016200000330343D360704700ED00E02DE9F04F35
:101630000B6885B0DFF8C081019300236C4ADFF8A6
:10164000BC914FF0010E019C0EFA03FE0EEA040657
:10165000B64540F0B3804C6824F01007022F16D135
:101660004FEAD30A03F0070B4FF00F0C00EB8A0A86
:101670004FEA8B0BDAF820500CFA0BFC25EA0C0C25
:101680000D6905FA0BF545EA0C05CAF820504FEA3A
:10169000430A0325D0F800B004F0030C05FA0AF55C
:1016A000013F0CFA0AFCED43012F0BEA050B4CEA53
:1016B0000B0CC0F800C011D8876807EA050BCF688B
:1016C00007FA0AFC4CEA0B078760476827EA0E0E08
:1016D000C4F300179F4047EA0E074760C7683D40C4
:1016E0008F6807FA0AF73D43C560E50066D5D8F86C
:1016F000445023F0030703F0030E4FF00F0C45F4A2
:10170000804507F180474FEA8E0EC8F8445007F530
:101710009C37D8F8445005F480450395039D0CFA96
:101720000EF5D7F808A02AEA050C324DA8424CD095
:1017300005F58065A8424AD005F58065A84248D0E5
:1017400005F58065A84246D005F58065A84244D0DD
:10175000484544D005F50065A84242D005F58065AE
:10176000A84240D005F58065A8423ED005F58065C9
:10177000A84214BF0A25092505FA0EF514F4803F86
:1017800045EA0C05BD606FEA060715680CBF3D40D1
:10179000354314F4003F156055680CBF3D40354398
:1017A00014F4801F556095680CBF3D403543A4027A
:1017B0009560D56854BF3D403543D5600133102B4B
:1017C0007FF43FAF05B0BDE8F08F0025D4E70125D9
:1017D000D2E70225D0E70325CEE70425CCE705258F
:1017E000CAE70625C8E70725C6E70825C4E700BFFE
:1017F000003C01400000024000380240001402405A
:10180000194B37B51A6C194C42F080521A641B6C94
:1018100003F080530193019B236843F480332360DA
:10182000FFF7ECFE05466368DA030CD5236843F442
:1018300000332360FFF7E2FE0C4C054663689B0310
:101840000AD5002006E0FFF7D9FE401BB0F57A7FED
:10185000E9D9032003B030BDFFF7D0FE401BB0F53F
:101860007A7FEBD9F5E700BF0038024000700040F6
:101870002DE9F341044618B9012002B0BDE8F0811A
:101880000368D80710D4236899075ED42368190722
:1018900000F1A38023685A0700F1C480A269002ADE
:1018A00040F02E810020E8E7934B9A6802F00C028A
:1018B000042A07D09A6802F00C02082A0AD15B6851
:1018C0005A0207D58C4B1B689B03DCD56368002B41
:1018D000D9D1D1E76368884DB3F5803F11D12B682A
:1018E00043F480332B60FFF789FE834D06462B6857
:1018F0009F03C8D4FFF782FE801BC828F7D90320B6
:10190000BBE79BB92B6823F480332B602B6823F44F
:1019100080232B60FFF772FE06462B689803B2D532
:10192000FFF76CFE801BC828F7D9E8E7B3F5A02FB6
:101930002B6803D143F480232B60D0E723F480335A
:101940002B602B6823F48023CCE76B4B9A6812F052
:101950000C0F07D09A6802F00C02082A11D15B68BC
:1019600059020ED4644B1A68920702D5E268012A24
:1019700082D11A68216922F0F80242EAC1021A6093
:1019800084E7E3685C4DBBB12B6843F001032B6037
:10199000FFF734FE06462B689F0707D52B682269A0
:1019A00023F0F80343EAC2032B606FE7FFF726FE3C
:1019B000801B0228EFD9A2E72B6823F001032B60DC
:1019C000FFF71CFE06462B6898077FF55FAFFFF711
:1019D00015FE801B0228F6D991E76369464D83B155
:1019E0006B6F43F001036B67FFF708FE06466B6FF2
:1019F0009B073FF54FAFFFF701FE801B0228F6D98A
:101A00007DE76B6F23F001036B67FFF7F7FD064679
:101A10006B6F9F077FF53EAFFFF7F0FD801B02283D
:101A2000F6D96CE7344B1A6CD00027D41A6C012617
:101A300042F080521A641B6C03F080530193019BA7
:101A40002E4D2B68D9051BD5A3682B4D012B27D113
:101A50002B6F43F001032B6741F28835FFF7CEFD72
:101A6000254F80463B6F9B073FD5002E3FF416AFB6
:101A7000214A136C23F0805313640FE70026DFE73D
:101A80002B6843F480732B60FFF7B8FD07462B6883
:101A9000DA05D9D4FFF7B2FDC01B6428F7D92EE7C9
:101AA000ABB92B6F41F2883823F001032B672B6F02
:101AB00023F004032B67FFF7A1FD07462B6F980760
:101AC000D3D5FFF79BFDC01B4045F7D917E7052B82
:101AD0002B6F03D143F004032B67B9E723F0010315
:101AE0002B672B6F23F00403B5E7FFF787FDA0EB0F
:101AF0000800A842B6D902E7003802400070004052
:101B0000244DAB6803F00C03082B3FF4B5AE2B68F3
:101B1000022A23F080732B602ED1FFF76FFD06465B
:101B20002B68990122D4226AE3691343626A43F065
:101B3000005343EA8213E26A43EA0263A26A154C45
:101B40005208013A43EA02436B602B6843F080730A
:101B50002B60FFF753FD054623689A013FF5A2AEBF
:101B6000FFF74CFD401B0228F6D9C8E6FFF746FDFB
:101B7000801B0228D4D9C2E6FFF740FD04462B683B
:101B80009B017FF58FAEFFF739FD001B0228F6D9C8
:101B9000B5E600BF00380240134908B58B6803F072
:101BA0000C03042B03D0082B03D0104808BD1048A9
:101BB00008BD4A684B68496802F03F0213F480038D
:101BC000C1F388111ABF0A4800230848A1FB00018D
:101BD00007F060FB044B5B68C3F3014301335B0018
:101BE000B0FBF3F008BD00BF003802400024F40051
:101BF00000127A002DE9F0410D46044610B901208B
:101C0000BDE8F081464A136803F00F038B4228D3E6
:101C100021688F0730D4C80743D4414A136803F0C2
:101C20000F039D4267D32268510770D4130707D56D
:101C30003C4A2169936823F4604343EAC1039360FB
:101C4000FFF7AAFF374B384A9B68C3F30313D35CF3
:101C5000D840364B18600F20FEF770FE0020BDE81C
:101C6000F081136823F00F030B431360136803F034
:101C70000F039942C3D1CBE711F0040F294B03D0D6
:101C80009A6842F4E0529A600E0703D59A6842F4CB
:101C900060429A609A68A06822F0F00202439A605B
:101CA000B9E761681F4B01291A681CD112F4003F83
:101CB000A5D09A6841F288381A4E22F003020A43EE
:101CC0009A60FFF79BFC0746B368626803F00C0359
:101CD000B3EB820FA1D0FFF791FCC01B4045F3D9B5
:101CE0000320BDE8F081022902D112F0007FDFE776
:101CF00012F0020FDCE7136823F00F032B4313608D
:101D0000136803F00F039D427FF479AF8BE7054919
:101D1000E0688B6823F4E05303438B6086E700BFE1
:101D2000003C02400038024046A60008D4020020D1
:101D3000044B054A9B68C3F38223D35C034A1068B3
:101D4000D84070470038024056A60008D402002050
:101D5000044B054A9B68C3F34233D35C034A1068C3
:101D6000D84070470038024056A60008D402002030
:101D70000F2303600B4B9A6802F0030242609A68DB
:101D800002F0F00282609A6802F4E052C2609B683E
:101D9000DB0803F4E0530361034B1B6803F00F03FC
:101DA0000B60704700380240003C02402DE9F743C9
:101DB0000268044612F001060BD0B84B996821F472
:101DC00000019960466B99683143B6FA86F6760948
:101DD000996012F4002512D0B049E56BD1F88C302F
:101DE000B5F5801F23F4401308BF012643EA05031D
:101DF00016BFB5FA85F500256D09C1F88C30D10202
:101E000010D5A648216CD0F88C30B1F5800F23F4A2
:101E1000400343EA0103C0F88C3000F085810029BB
:101E200008BF012512F0807F18BF0126920631D528
:101E30009A4B9B4F1A6C42F080521A641B6C03F051
:101E400080530193019B3B6843F480733B60FFF731
:101E5000D5FB80463B68DB0540F168818F4F3B6FC7
:101E600013F4407340F06D81236B03F44072B2F5BC
:101E7000407F8A4A40F08B81916823F0704021F4C2
:101E8000F81120F4407001439160C3F30B03116F0C
:101E90000B4313672368DA060CD5804AD2F88C10FE
:101EA00021F08071C2F88C10D2F88C10A06B014325
:101EB000C2F88C105F0408D57849606ED1F8902084
:101EC00022F440320243C1F89020180408D5734927
:101ED000A06ED1F8902022F440220243C1F8902055
:101EE000D90308D56D49E06ED1F8902022F4401254
:101EF0000243C1F890209A0308D56849206FD1F8B1
:101F0000902022F440020243C1F890205F0608D5D9
:101F10006249606CD1F8902022F003020243C1F8BC
:101F20009020180608D55D49A06CD1F8902022F0C9
:101F30000C020243C1F89020D90508D55749E06C3E
:101F4000D1F8902022F030020243C1F890209A0587
:101F500008D55249206DD1F8902022F0C0020243EA
:101F6000C1F890205F0508D54C49606DD1F89020EC
:101F700022F440720243C1F89020180508D5474961
:101F8000A06DD1F8902022F440620243C1F8902065
:101F9000D90408D54149E06DD1F8902022F440528F
:101FA0000243C1F890209A0408D53C49206ED1F82C
:101FB000902022F440420243C1F890205F0208D5ED
:101FC0003649A06FD1F8902022F080620243C1F818
:101FD000902098020CD53148E16FD0F89020B1F1F3
:101FE000006F22F0006208BF01250A43C0F890206C
:101FF00013F0080F18BF0125590308D52749606F52
:10200000D1F8902022F040720243C1F890201A02C9
:1020100009D52249D4F88000D1F8902022F08052CE
:102020000243C1F89020012E00F0B580B3F1007F8B
:1020300000F0B180012D75D1184D2B6823F080532D
:102040002B60FFF7DBFA06462B689F0000F1278123
:1020500021680E0301D5E36B1BB1CD0222D5236CA1
:1020600003BB0E4AD2F88830D2F8880003F440331C
:1020700000F0E0400343606943EA8013A06943EA4B
:102080000063C2F88830D2F88C30A06A23F4F85389
:10209000013843EA0023C2F88C3003E000380240E4
:1020A00000700040880215D5E36FB3F1006F11D1C5
:1020B000824AD2F88830D2F8880003F0706300F0CA
:1020C000E0400343606943EA8013206A43EA004327
:1020D000C2F888300A0719D57849D1F88820D1F894
:1020E000883002F0706203F440331343626943EABC
:1020F0008213E26943EA0273C1F88830D1F88C3068
:10210000E26A23F440331343C1F88C306B4C2368EC
:1021100043F080532360FFF771FA054623689B0064
:1021200040F1C480002009E001267BE6FFF766FA53
:10213000A0EB080064287FF68DAE032003B0BDE855
:10214000F083226B02F4407293423FF48DAE3B6FFA
:102150003A6F23F4407342F480323A673A6F22F4C4
:1021600080323A673B673B6FD8077FF57DAEFFF75C
:1021700045FA41F2883980463B6F99073FF574AEC6
:10218000FFF73CFAA0EB08004845F5D9D5E7916880
:1021900021F4F81178E6494E336823F08063336008
:1021A000FFF72CFA074633681B0172D42268D70761
:1021B00012D5636B83B9D6F88430D6F8841003F453
:1021C000403301F070610B43616843EA8113A168F9
:1021D00043EA0173C6F88430160303D5E36BB3F505
:1021E000801F05D0D0021ED5236CB3F5800F1AD105
:1021F0003249D1F88430D1F8840003F4403300F040
:10220000E0400343606843EA8013E06843EA006308
:10221000C1F88430D1F88C00636A20F01F00013BC4
:102220000343C1F88C30D10111D52449D1F8843051
:10223000D1F8840003F0706300F0E040034360686D
:1022400043EA8013206943EA0043C1F884309201D5
:102250000DD5236962681B0443EA8213E26843EAEE
:102260000263A26843EA0273144AC2F88430134E30
:10227000336843F080633360FFF7C0F90746336883
:102280001B013FF5D7AEFFF7B9F9C01B6428F6D99B
:1022900053E7FFF7B3F9C01B642884D94DE7FFF774
:1022A000ADF9801B64287FF6CFAE46E7FFF7A6F9AD
:1022B000401B64287FF632AF3FE700BF0038024082
:1022C000036A10B5046A23F00A0324F001040B43E7
:1022D0000462846924F0F00444EA02128261036219
:1022E00010BD036A23F0100310B503628469036A0A
:1022F00024F4704423F0A00344EA023243EA0113B9
:102300008261036210BD0268022380F83D301368C9
:1023100043F001031360012380F83D300020704733
:10232000704770477047000003681A6A22F0010284
:102330001A621A6A42F001021A621A6A22F0100244
:102340001A621A6A42F010021A62064A934203D0D5
:1023500002F58062934203D15A6C42F400425A64FF
:102360000020704700000140304A0368904212D0BC
:10237000B0F1804F0FD0A2F57C4290420BD002F515
:102380008062904207D002F58062904203D002F54D
:10239000784290421DD14A6823F070031343234AC8
:1023A000904204D123F44073CA68134328E0B0F18B
:1023B000804FF7D01E4A9042F4D002F580629042DE
:1023C000F0D002F580629042ECD002F57842904263
:1023D000E8D0184A9042E5D002F580629042E1D000
:1023E00002F580629042DDD0A2F598329042D9D0B9
:1023F00002F580629042D5D002F580629042D1D041
:102400004A6923F08003134303608B68C3620B683F
:102410008362064B984206D003F58063984202D04F
:102420000123436170470B690363F9E70000014032
:10243000000400400040014010B50446A0B190F8EF
:102440003D3003F0FF021BB980F83C20FDF716FF7A
:1024500002232068211D84F83D30FFF785FF01230A
:10246000002084F83D3010BD012010BD10B5044699
:10247000A0B190F83D3003F0FF021BB980F83C207A
:10248000FFF74EFF02232068211D84F83D30FFF73F
:102490006BFF0123002084F83D3010BD012010BDEA
:1024A00010B50446A0B190F83D3003F0FF021BB90F
:1024B00080F83C20FFF735FF02232068211D84F8B7
:1024C0003D30FFF751FF0123002084F83D3010BD5F
:1024D000012010BD38B50D460446E0B190F83D30FE
:1024E00003F0FF021BB980F83C20FFF71BFF02231B
:1024F000211D206884F83D30FFF736FF2368002057
:102500001A6822F008021A60196829431960012329
:1025100084F83D3038BD012038BD0000036A23F047
:10252000010370B50362036A4268846923F0020301
:102530000D6824F4803424F073042C438D682B43FD
:102540000C4DA84209D005F58065A84205D042602F
:102550004A6884614263036270BDCD6823F008035A
:102560008E6922F440722B434D69354323F00403F6
:102570002A43ECE700000140036A23F0100370B522
:102580000362036A4268846923F020030D6824F023
:10259000807424F4E64444EA05248D6843EA051374
:1025A0000D4DA84209D005F58065A84205D04260CE
:1025B0004A6884618263036270BDCD6823F0800342
:1025C0008E6922F4406243EA05134D69354323F0D6
:1025D000400342EA8502EAE700000140036A23F46F
:1025E000807370B50362036A4268C46923F40073A0
:1025F0000D6824F4803424F073042C438D6843EA7E
:1026000005230E4DA84209D005F58065A84205D0E6
:1026100042604A68C461C263036270BDCD6823F43E
:1026200000638E6922F4405243EA05234D69354325
:1026300023F4806342EA0512EAE700BF000001408C
:10264000036A23F4805330B50362046A4268C369A5
:1026500024F400540D6823F0807323F4E64343EA26
:1026600005238D6844EA0534094DA84209D005F5D3
:102670008065A84205D04260C3614B680364046270
:1026800030BD22F480424D6942EA8512F3E700BF73
:102690000000014010B50A43846842EA032324F491
:1026A0007F442343836010BD90F83C30012B10B56C
:1026B00004464FF0020018D084F83D000123206842
:1026C00084F83C3082683E4B134083600B68402B9B
:1026D00059D015D8102B67D008D8002B5ED0012315
:1026E000002084F83D3084F83C0010BD202B61D0E0
:1026F000302BF4D1836823F0700343F0370326E0D6
:10270000702B26D00ED8502B32D0602BE7D1CA6860
:102710004968FFF7E6FD2268936823F0700343F0F1
:10272000670323E0B3F5805F0CD0B3F5005FD6D12B
:10273000CB684A688968FFF7ADFF2268936843F465
:10274000804313E0836823F4803323F0070383601E
:10275000C5E7CB684A688968FFF79CFF22689368E1
:1027600023F4803323F0770343F077039360B6E7D5
:10277000CA684968FFF7A4FD2268936823F07003D4
:1027800043F05703F2E7CA684968FFF799FD2268EA
:10279000936823F0700343F04703E7E7836823F06F
:1027A000700343F00703D2E7836823F0700343F01C
:1027B0001703CCE7836823F0700343F02703C6E7D1
:1027C0008800FEFF38B590F83C3004460220012B0B
:1027D0001ED084F83D000123206884F83C308368D3
:1027E0004A6823F070030D68502A43EA020323F479
:1027F000803323F0070343EA0503836021D008D820
:10280000402A10D00123002084F83D3084F83C0099
:1028100038BD602A1AD0702AF4D10B698A68C96859
:10282000FFF738FFEEE7026A036A096923F0010344
:102830000362836923F0F00343EA011383610262B8
:10284000E0E70A698968FFF73BFDDBE70A69896809
:10285000FFF747FDD6E710B50124036A8A408C4094
:1028600023EA04030362036A1A43026210BD0000F4
:1028700010B5044601220068FFF7EDFF2368084AFF
:10288000934203D002F58062934203D15A6C42F422
:1028900000425A641A68002042F001021A6010BD1A
:1028A00000000140FFF7E4BF036A23F4803330B532
:1028B0000362026A4468436D22F400320D6823F417
:1028C000803323F070032B438D6842EA0542094DA3
:1028D000A84203D005F58065A84204D124F48034D1
:1028E0004D6944EA0524446043654B688365026290
:1028F00030BD00BF00000140036A23F4801330B5EF
:102900000362026A4468436D22F400120D6823F0EA
:10291000807323F4E04343EA05238D6842EA0552BD
:10292000084DA84203D005F58065A84204D124F4DF
:1029300080244D6944EA8524446043654B68C3653F
:10294000026230BD0000014090F83C30012B30B5F0
:102950001CD002680E4D5368AA42946803D005F556
:102960008065AA4203D123F470034D682B430D68A0
:1029700023F07003896824F080042B4321435360C3
:102980000023916080F83C30184630BD022030BDF5
:102990000000014038B590F83C3004460D46022056
:1029A000012B10D00123082A84F83D0084F83C3024
:1029B00043D009D8FAB1042A2ED00123002084F88C
:1029C0003D3084F83C0038BD102A47D0142A56D038
:1029D0000C2AF2D12068FFF733FE23682969DA69EF
:1029E00042F40062DA61DA6922F48062DA61DA695B
:1029F00042EA012230E02068FFF790FD2368296950
:102A00009A6942F008029A619A6922F004029A6176
:102A10009A690A439A61D0E72068FFF7ADFD236801
:102A200029699A6942F400629A619A6922F4806283
:102A30009A619A6942EA0122ECE72068FFF7CEFD2D
:102A400023682969DA6942F00802DA61DA6922F05A
:102A50000402DA61DA690A43DA61AEE72068FFF757
:102A600023FF236809695A6D42F008025A655A6DBE
:102A700022F004025A655A6D0A435A659DE72068A0
:102A8000FFF73AFF236809695A6D42F400625A65FC
:102A90005A6D22F480625A655A6D42EA0122ECE7CF
:102AA00070472DE9F041069D04460F4616469846AC
:102AB0002168CA6937EA02030CBF01220022B24230
:102AC00002D00020BDE8F0816B1CF2D09DB92368D4
:102AD00003201A6822F4D0721A609A6822F0010268
:102AE0009A60202384F8693084F86A30002384F8DF
:102AF0006830BDE8F081FEF781FDA0EB080085425B
:102B0000D6D8E4E738B504460568C3692169A268E8
:102B100028680A4361690A4393491A430140206ABD
:102B20000A43E1682A606A6822F440520A436A60F4
:102B3000A269A968024321F430610A43AA608B4A62
:102B4000954219D102F594328949D2F8902002F0C9
:102B50000302B3F5004F8A5C40F0B380082A00F20C
:102B6000AD80DFE812F026007B00E900AB00F50045
:102B7000AB00AB00AB00FB007E4A954207D102F5EB
:102B8000FA327D49D2F8902002F00C02E1E77B4A4C
:102B900095422BD102F5F832D2F8902002F03002A3
:102BA000102A00F0D28016D8DAB9B3F5004F40F001
:102BB0009F80FFF7BDF861684A0802EB4003B3FB52
:102BC000F1F39BB2002023F00F02C3F3420321680C
:102BD0001343CB6038BD202A00F0AB80302A00F0D0
:102BE000BA80B3F5004F69D0012038BD644A9542E0
:102BF0000ED102F5F632D2F8902002F0C002402A3F
:102C000000F0A380D0D9802A00F09380C02AE6E7A4
:102C10005C4A954210D102F5F432D2F8902002F4C9
:102C20004072B2F5807F00F09080BDD9B2F5007F90
:102C30007FD0B2F5407FD2E7534A954217D102F5D3
:102C40009232D2F8902002F44062B2F5806F7CD0CC
:102C500007D8002AC5D1B3F5004F54D1FFF778F853
:102C6000A9E7B2F5006F64D0B2F5406FB7E7474A05
:102C700095420FD102F5E032D2F8902002F4405292
:102C8000B2F5805F61D08FD9B2F5005F51D0B2F557
:102C9000405FA4E73E4A9542A3D102F5DE32D2F866
:102CA000902002F44042B2F5804F4ED07FF67CAFC8
:102CB000B2F5004F3DD0B2F5404F90E70120002320
:102CC00081E7082A90D801A353F822F0F12C0008DC
:102CD000072D00080D2D0008E92B0008232D000802
:102CE000E92B0008E92B0008E92B0008292D000832
:102CF000FFF71EF8636800EB5300B0FBF3F080B2FF
:102D0000E860002038BDFFF723F8F3E76268530856
:102D100003F5740303F51053B3FBF2F39BB2EB60BE
:102D2000EFE7FEF739FFE5E76268530803F5004374
:102D3000F2E7B3F5004FE9D16068430803F1F4739B
:102D400003F59043B3FBF0F33BE7B3F5004FE8D155
:102D5000FEF722FF2FE7B3F5004FE5D16068430887
:102D600003F58033EEE700BFF369FFEF0010014089
:102D700035A600080044004039A60008004800407D
:102D8000004C00400050004000140140007800401A
:102D9000007C0040436ADA0710B506D50168846AF2
:102DA0004A6822F4003222434A609C0706D5016833
:102DB000C46A4A6822F4803222434A60590706D521
:102DC0000168046B4A6822F4802222434A601A0791
:102DD00006D50168446B4A6822F4004222434A60E7
:102DE000DC0606D50168846B8A6822F4805222438F
:102DF0008A60990606D50168C46B8A6822F400527D
:102E000022438A605A0610D50168046C4A68B4F5FA
:102E1000801F22F4801242EA04024A6005D14A6807
:102E2000446C22F4C00222434A601B0606D50268A5
:102E3000816C536823F400230B43536010BD37B5F6
:102E400000250446C566FEF7D9FB226803461268D2
:102E5000120709D42023002084F8693084F8680020
:102E600084F86A3003B030BD6FF07E424FF4001139
:102E7000204600922A46FFF714FE0028EAD00320DD
:102E8000F0E710B5044660B390F8693003F0FF0234
:102E90001BB980F86820FFF703FE22682423204630
:102EA00084F86930136823F001031360FFF72AFEEA
:102EB000012816D0636A13B12046FFF76BFF236821
:102EC00020465A6822F490425A609A6822F02A02F8
:102ED0009A601A6842F00102BDE810401A60FFF7DC
:102EE000AEBF012010BD10B50F20A6B002230024F4
:102EF00007218DE819004FF4A053684603934FF45F
:102F000080530493FEF776FE58B94FF400132490D3
:102F100005A80593FEF74AFFB0FA80F0400926B0F5
:102F200010BD2046FBE700000E490020D1F8883094
:102F300043F47003C1F888300B4B1A6842F0010269
:102F40001A6098601A6822F0847222F480321A6043
:102F5000064A5A601A6822F480221A60D860044B2C
:102F60008B60704700ED00E0003802401030002414
:102F7000000000081C4B1A6C42F0805200B51A6425
:102F80008FB01B6C03F080530093009B174B1A68A3
:102F900042F440421A601B6803F440430193019BD2
:102FA00001230293B0B94FF480334FF480020393AE
:102FB000022302A80992042208930A92D8220C93B1
:102FC00009230B920D93FEF753FC30B100200FB094
:102FD0005DF804FB4FF4A023E7E7FEF711FC00289F
:102FE000F4D1FFF780FFF2E70038024000700040A4
:102FF000154B10211A6C42F0805200B51A648FB044
:103000001B6C012202A8069103F080530592002256
:103010000193019B022303920992082202930893D1
:103020000A92D8220C9309230B920D93FEF720FCF1
:1030300018B100200FB05DF804FBFEF7E1FB00289B
:10304000F7D1FFF750FFF5E70038024008B501203F
:10305000FFF790FF18B9FFF7CBFF00B9FEE708BDF7
:10306000174A1849936803F00C03042B10B50DD0D0
:10307000082B0DD0144B0B60114B144A9B68C3F303
:103080000313D25C0B68D3400B6010BD104BF2E70A
:10309000546850686302526800F03F0048BF0C4B10
:1030A000C2F3881258BF084BB3FBF0F35343044AF2
:1030B0005268C2F3014201325200B3FBF2F3DAE785
:1030C00000380240D40200200024F40046A6000884
:1030D00000127A0070470000014B586A704700BF29
:1030E000000C0040054B1B68DA6822F00202DA602F
:1030F0005863DA6842F00202DA607047BC110020BF
:10310000034B1A68536943F002035361704700BFD1
:10311000BC110020034B1A68D36823F00203D3606C
:10312000704700BFBC110020024B6FF002021B6809
:103130001A617047BC1100200048704760A6000863
:10314000024B1B680BB1024818477047D802002099
:1031500060A6000838B504460D4603685AB1826877
:10316000204613600121FDF793FB29462046BDE868
:103170003840FDF789BBC2681B04F1E770B50E4605
:1031800004461546FDF760FB013606D02A46204668
:103190000021BDE87040FFF7DDBF70BD0022FFF7E2
:1031A000EDBF00002DE9F34790E8080404465B6892
:1031B000984763681B6A984232D0DAF820400027AB
:1031C000DAF80C30041BDAF80820CAF820001C409A
:1031D0002B4B9A4226461DD0B2F5004FA4FB034567
:1031E000DAE90A01CDE9000125D147F6FF70E60BC7
:1031F0000021EF0B044046EA45460D40DDE900237F
:1032000012196B41144699421D4608BF90420AD3D9
:10321000CAE90A45DAE90C23B6185F41CAE90C6726
:1032200002B0BDE8F087013647F10007B2F500446F
:1032300043F1FF35ECE74FF0000990462046294660
:103240004B4606F027F8424606460F464B462046B8
:10325000294606F01FF8DDE90001801859410246B1
:1032600049450B4608BF404502D2CAE90A23D1E7C7
:10327000013647F10007B0EB080261EB0903F4E700
:1032800040420F00824206D98A420BD9884294BF3D
:10329000002001207047884206D98A428CBF002056
:1032A0000120704701207047002070472DE9F0474A
:1032B0008146D0F80480FFF775FFD9F80450D9F89B
:1032C00000A0696800294ED0D5E90C23D1E9006738
:1032D000BB4208BFB24204D3DAF81430BDE8F0476D
:1032E0001847B61A2C6967EB0307D5E90623BB42DA
:1032F00008BFB24206D3AB68224A93421DD1B44202
:1033000028BF34462A6AD8F820301444EA681440AA
:10331000A342E1D0DAF8103020469847D9F80030BF
:103320005B68984722460146D8F82000FFF7AAFFBD
:1033300030B3D9F800305B69D0E7B3F5004F0BD15B
:10334000F903104A0023F00341EA564105F0A2FFB9
:10335000844228BF0446D5E7A3FB0601094A03FBC4
:1033600007110023F2E7D8F81030D8F82000D8F879
:103370000C201844DAF810301040BDE8F047184728
:10338000BDE8F08740420F0003682DE9F74F04467F
:103390001B68984723689B699847D0F800B005469A
:1033A000BBF1000F06D1DFF8B4B0292229492A4821
:1033B00000F004F9D5F804A0AAF104031C2B06D9E7
:1033C0004FF0200A2F222349234800F0F7F8AAF1F2
:1033D000040307251BF1FF30204E05FA03F54FF0DB
:1033E00000035A464FF0000943F1FF31C6FB0501C7
:1033F00005F050FFD4F8048000230F460646C8F8B5
:103400000030C8F8043023685B6898476368C8F8E0
:1034100020004FF00008C3F808B0524601200021F8
:103420000193C3E90A8905F095FA019B012201384D
:103430001D61D860204683F83820C3E90667C3E9D8
:103440000C89FFF7AFFE204603B0BDE8F04FFFF751
:103450002DBF00BF84A6000833A6000840420F001D
:1034600070B5044600F086F82368DB689847636807
:103470005B68A3B12046FFF795FE65686E68D5E9E5
:103480000C01D6E90023994208BF904207D3F368A4
:103490006B602B68002BEAD0B0689847E7E72046BE
:1034A000FFF704FFBDE8704000F07AB8436893F876
:1034B000383010B504460BB9FFF766FF00F05AF834
:1034C0002046FFF76FFE00F06BF86368D3E90C014C
:1034D00010BD08B5FFF7EAFF08BD000010B50446AF
:1034E00001300DD110BD9C4209D120468968FDF7FD
:1034F00083FD20460021BDE81040FDF717BE0C31CA
:10350000B1F900305A1CEED10248BDE8104000F07D
:1035100067B800BF05A70008884208B508D0431C5B
:1035200006D0013106D0044800F05AF84FF0FF31C0
:10353000084608BD0146FBE7D4A60008B1F90030F3
:103540005A1C01D118467047834201D14868704720
:103550000C31F3E7421C10B5044607D0FFF7EEFF2D
:10356000431C044602D1024800F03AF8204610BD40
:10357000E5A6000810B5074C2368013304D1552295
:103580000549064800F01AF800F064F82368013392
:10359000236010BDB80D002016A7000869A7000819
:1035A000054B1A6832B11A68013A1A601B680BB9E8
:1035B00000F062B8704700BFB80D002070B5044637
:1035C0000D461646FFF7D6FF2A46214633460348E6
:1035D000FDF76CFABDE87040FDF712BA9AA7000833
:1035E0000FB4094B13B51A784AB9012405A90498F8
:1035F0001C700191FDF730FA2046FDF76BFB02B01D
:10360000BDE8104004B07047BC0D002070B5044602
:10361000FFF792FD0646FFF75CFF05463046FFF7D1
:1036200058FF401BA042F9D370BD000007EE100AFE
:10363000DFED047A67EE277AFDEEE77A17EE900A5F
:10364000FFF7E4BF002474494FF47A735843FFF73F
:10365000DDBF0000EFF31083DB4372B6044A11783C
:1036600029B903F0010303490B700123137070475C
:10367000BE0D0020BD0D002008B5EFF31083DB0761
:1036800004D4362205490648FFF798FF054B00226F
:103690001A70054B1B7803B162B608BDCBA70008B2
:1036A00025A80008BE0D0020BD0D0020014B1868A4
:1036B000704700BFDC020020B1F90C309AB22DE94E
:1036C000F0410C461107804644D4626843F400631D
:1036D000002AA38159DDA56A002D53D000229BB298
:1036E000D8F80060E169C8F8002013F4805240F077
:1036F000838001234046A847421C4AD0A389A56A7B
:10370000E1695B0705D56268236B801A0BB1E36B37
:10371000C01A024600234046A847471C45D0B4F9CA
:103720000C302269226023F400630022A381DB04B1
:10373000626000D52065216BC8F8006011B304F108
:103740004003994202D0404605F028FF0020206344
:10375000BDE8F0812669AEB12568266092070CBFEE
:1037600063690023AD1BA3600AE02B463246676AFB
:10377000E1694046B8470028A5EB000506442BDD6B
:10378000002DF2DC0020BDE8F081E26B002AA2DC13
:10379000F8E7D8F80030002BB0D01D2B01D0162B45
:1037A0002CD1C8F800600020EDE7D8F800101D29E2
:1037B0001AD8154BB4F90C20CB40DB4313F00103AE
:1037C00014D1256922F40062C4E90053D504A28112
:1037D000B1D50029AFD1ADE7A38943F04003A38160
:1037E0004FF0FF30BDE8F081B4F90C2042F0400208
:1037F000A2814FF0FF30C6E7206D82E7A38943F036
:103800004003A381BFE700BF0100402038B50D464B
:10381000044608B1836BA3B1B5F90C00B8B16B6E67
:10382000DB0701D481051AD520462946FFF744FF5E
:103830006B6EDA07044602D4AB899B050AD5204695
:1038400038BD00F051F8B5F90C000028E7D1044666
:10385000204638BDA86D00F0FBF8204638BDA86DA5
:1038600000F0F4F8E0E700BF20B1054B014618680E
:10387000FFF7CCBF034B0449186800F095B800BFB0
:10388000DC02002040A800080D38000810B5002315
:1038900004468181C281C0E9003383604366C0E988
:1038A00004338361194608225C3000F043FA07486C
:1038B0000749084A084BE362C4E90740C4E9091212
:1038C00004F15800BDE8104000F0BCB8F13D00081C
:1038D000153E0008513E0008713E0008014900F005
:1038E00063B800BFD565000810B50446124800F063
:1038F000ADF8A26BD2B904F53B731048C4F8E832B6
:103900000321C4F8E022E063C4F8E41260680421F3
:10391000FFF7BCFF01220921A068FFF7B7FF0222D1
:103920001221E068FFF7B2FF0123A3630248BDE85C
:10393000104000F08DB800BF08120020DD380008EC
:10394000014800F083B800BF1C120020014800F0BD
:103950007FB800BF1C1200200EB410B583B005ABB9
:10396000064C53F8042B01930146206800F0F8FA46
:1039700003B0BDE8104003B0704700BFDC02002078
:1039800038B50B46074C0546114618460023236000
:10399000FDF7E8FA431C00D038BD2368002BFBD0AC
:1039A0002B6038BD201200202DE9F84310F5387740
:1039B0001FD0884606464FF00009D7E90154013D63
:1039C00011D4A389012B05F1FF352146304606D9D4
:1039D000B4F90E30013302D0C04749EA00096B1C2C
:1039E00004F16804EDD13F68002FE6D14846BDE8F8
:1039F000F883B9464846BDE8F88300BF70B50D4E60
:103A00000D4D761BB61006D00024013455F8043B4A
:103A10009847A642F9D1094E094D761B06F09EFB48
:103A2000B61006D00024013455F8043B9847A6424E
:103A3000F9D170BD840C0020840C00208C0C002077
:103A4000840C0020704700BF704700BF704700BF64
:103A5000704700BF70B50C46B1F90E10002996B042
:103A600015461E460FDAA289002312F0800033604B
:103A700004D14FF480632B6016B070BD402218460D
:103A80002A6016B070BD6A46FFF77AFF0028EADBAD
:103A9000019B03F47043A3F50053B3FA83F35B096E
:103AA0004FF480624FF4006033602A6016B070BD3E
:103AB0008A8992070B4606D501F1430201211A605B
:103AC000C3E90421704770B582B001AB6A460C4669
:103AD0000546FFF7BFFF00990646284605F05AFD48
:103AE000B4F90C30D8B11649E963019A0099206005
:103AF00043F08003A381C4E904011AB93343A381CD
:103B000002B070BD2846B4F90E1002F0CBFDA0B192
:103B1000A38923F0030343F001031BB2EEE79A05E8
:103B2000EED423F0030304F1430243F00203012126
:103B3000A3812260C4E90421E2E7B4F90C30DDE797
:103B4000DD380008024B0146186805F027BD00BFAC
:103B5000DC02002000000000000000000000000067
:103B600001F0FF01102A2BDB10F0070F08D010F82E
:103B7000013B013A8B422DD010F0070F42B3F6D132
:103B8000F0B441EA012141EA014122F007047FF04B
:103B900000070023F0E80256083C85EA010586EAA2
:103BA000010685FA47F5A3FA87F586FA47F6A5FADE
:103BB00087F68EB9EED1F0BC01F0FF0102F00702EA
:103BC00032B110F8013B013A83EA010313B1F8D195
:103BD0000020704701387047002D06BF3546033876
:103BE000073815F0010F07D1013015F4807F02BFAF
:103BF000013015F4C03F0130F0BC0138704700BF00
:103C0000844641EA000313F003036DD1403A41D3E7
:103C100051F8043B40F8043B51F8043B40F8043BA6
:103C200051F8043B40F8043B51F8043B40F8043B96
:103C300051F8043B40F8043B51F8043B40F8043B86
:103C400051F8043B40F8043B51F8043B40F8043B76
:103C500051F8043B40F8043B51F8043B40F8043B66
:103C600051F8043B40F8043B51F8043B40F8043B56
:103C700051F8043B40F8043B51F8043B40F8043B46
:103C800051F8043B40F8043B51F8043B40F8043B36
:103C9000403ABDD2303211D351F8043B40F8043BD6
:103CA00051F8043B40F8043B51F8043B40F8043B16
:103CB00051F8043B40F8043B103AEDD20C3205D3E6
:103CC00051F8043B40F8043B043AF9D2043208D0DE
:103CD000D2071CBF11F8013B00F8013B01D30B8850
:103CE00003806046704700BF082A13D38B078DD02E
:103CF00010F003038AD0C3F10403D21ADB071CBF00
:103D000011F8013B00F8013B80D331F8023B20F869
:103D1000023B7BE7043AD9D3013A11F8013B00F8A2
:103D2000013BF9D20B7803704B7843708B7883702A
:103D300060467047F0B4860743D0541E002A3ED038
:103D4000CAB2034602E014F1FF3438D303F8012B62
:103D50009D07F8D1032C2BD9CDB245EA05250F2CB0
:103D600045EA054516D9A4F110073F0903F12006DD
:103D700006EB071603F1100242E9045542E9025529
:103D80001032B242F8D104F00F040137032C03EBD8
:103D900007130DD91E462246043A032A46F8045B4F
:103DA000FAD8221F22F003020432134404F0030461
:103DB0002CB1C9B21C4403F8011B9C42FBD1F0BCDE
:103DC000704714460346C5E70FB400B5074983B0F2
:103DD00004AB086853F8042B8168019300F0C0F825
:103DE00003B05DF804EB04B0704700BFDC020020B4
:103DF00010B50C46B1F90E1002F090FF002803DB5D
:103E0000236D0344236510BDA38923F48053A3814C
:103E100010BD00BF2DE9F0411646B1F90C201F4638
:103E2000D3050C460546B1F90E1007D50022022332
:103E300002F058FCB4F90C20B4F90E1022F48052B0
:103E4000A2813B4632462846BDE8F04101F0ACBBBA
:103E500010B50C46B1F90E1002F044FCA389421CC7
:103E60000EBF23F4805343F480532065A38110BD1B
:103E7000B1F90E1001F014BC0000000000000000B9
:103E800090F800F06DE9024520F007016FF0000C9A
:103E900010F0070491F820F040F049804FF0000442
:103EA0006FF00700D1E9002391F840F000F108001D
:103EB00082FA4CF2A4FA8CF283FA4CF3A2FA8CF355
:103EC0004BBBD1E9022382FA4CF200F10800A4FABC
:103ED0008CF283FA4CF3A2FA8CF3E3B9D1E9042310
:103EE00082FA4CF200F10800A4FA8CF283FA4CF347
:103EF000A2FA8CF37BB9D1E9062301F1200182FA01
:103F00004CF200F10800A4FA8CF283FA4CF3A2FA06
:103F10008CF3002BC6D0002A04BF04301A4612BA14
:103F2000B2FA82F2FDE8024500EBD2007047D1E917
:103F3000002304F00305C4F100004FEAC50514F0A6
:103F4000040F91F840F00CFA05F562EA05021CBF77
:103F500063EA050362464FF00004A9E70000000091
:103F60002DE9F04FC3B01C468846924605460A909C
:103F700002F0AAFB036814931846FFF781FF0D9423
:103F800013901DB1AB6B002B00F00081D8F86410CA
:103F9000B8F90C20CD0793B202D4980540F14381C3
:103FA00099040AD4D8F8641042F4005321F4005163
:103FB000A8F80C30C8F864109BB21A0740F1B08022
:103FC000D8F81020002A00F0AB8003F01A020A2A69
:103FD00000F0C2809FEDA07B00238DED107B12933B
:103FE000CDE9263315931893099332AB259399465F
:103FF000C3469AF80030002B00F08382252B5446EC
:1040000002D11EE0252B03D014F8013F002BF9D17B
:10401000A4EB0A058DB1DDE9263201332A44072BD2
:10402000C9F800A0C9F80450CDE9263200F3DA80BF
:1040300009F10809099B2B4409932378002B00F010
:10404000608200231A468DF8773019460B93984604
:1040500066784FF0FF3304F1010A08930AF1010A70
:10406000A6F12003582B00F2FC83DFE813F0D10205
:10407000FA03FA03D902FA03FA03FA03FA03FA037A
:10408000FA0330033C03FA03D0039E03FA036402ED
:10409000E400E400E400E400E400E400E400E40000
:1040A000E400FA03FA03FA03FA03FA03FA03FA0341
:1040B000FA03FA03FA03B8034103FA034103FA03CC
:1040C000FA03FA03FA039903FA03FA039300FA03D3
:1040D000FA03FA03FA03FA03A700FA03FA036902E0
:1040E000FA03FA03FA03FA03FA03FA03FA03FA03E8
:1040F000FA03FA03BE02F9004103410341035202ED
:10410000F900FA03FA035702FA031F039500840328
:104110009403FA03FC02FA03A900FA03FA03E50286
:1041200041460A9801F056FA78B1D8F86430DB07B6
:1041300004D4B8F80C309F0540F18B834FF0FF3367
:104140000993099843B0BDE8F08FB8F80C3003F03C
:104150001A020A2A7FF43EAFB8F90E20002AFFF6B1
:1041600039AFD8F86420D60705D49D0503D4D8F814
:104170005800FFF76DFC2346524641460A9801F06D
:1041800089F90990099843B0BDE8F08F0A98FFF7C4
:10419000ABFBFBE648F0100818F0200340F03C832E
:1041A0000D9A52F8044B0D9218F0100204D118F039
:1041B00040031CBF1346A4B20025E2E148F01008FA
:1041C00018F0200F40F033830D9B18F0100F53F8B8
:1041D000044B0D9303D118F0400F18BFA4B2002573
:1041E0000123CEE125AA59460A9804F019F850B9DE
:1041F0000DF1C8091EE725AA59460A9804F010F8DF
:10420000002800F07581D846D8F86420B8F80C3042
:10421000D10702D49A0540F115835B068ED4099824
:1042200043B0BDE8F08FD8F85800FFF70FFCB8F99D
:104230000C2093B2B4E6A6F1300300201AF8016B0B
:1042400000EB800003EB4000A6F13003092BF5D909
:104250000B9005E7AFF300800000000000000000B5
:10426000002A41F0F28018F0200F00F0C1820D9C6E
:10427000073424F00703D3E9004503F108020D9247
:10428000002C75F10003C0F2D1849DF87770089B73
:10429000013300F02F84012328F08002069254EAB3
:1042A000050240F07781089A002A40F07B85002BB8
:1042B00040F0878418F001030C9300F0A08542AB16
:1042C0001A46302302F8413D0E92089B0C9A934205
:1042D000B8BF1346079300230F9317B1079B013311
:1042E0000793069B13F0020302D0079A023207924B
:1042F000069A279C12F0840842D10B9A0799551A06
:10430000002D3DDD102D269A2CDD48462146A9467C
:1043100010271D460A9C034606E0A9F11009B9F1D1
:10432000100F03F1080318DD0132C0481031072ACD
:10433000CDE92621C3E90007EFDD25AA594620462D
:1043400003F06EFF00287FF45EAFA9F11009B9F108
:10435000100FDDE9262132ABE6DC18460C462B4671
:104360004D4681460132B1492C44072ACDE9262425
:10437000C9E9001500F387849DF8777009F10809F1
:1043800077B1269A013201340DF177000121072A15
:10439000CDE92624C9E9000100F3928309F1080957
:1043A0006BB1269B013302341EA90222072BCDE9F3
:1043B0002634C9E9001200F3918309F10809B8F124
:1043C000800F00F0D082089B0C9A9D1A002D33DDDF
:1043D000102D269ADFF85C8223DD23461027444601
:1043E000DDF8288004E0103D102D09F1080916DDE4
:1043F00001321033072ACDE92623C9E90047F2DD4F
:1044000025AA5946404603F00BFF00287FF4FBAE77
:10441000103D102DDDE926230DF1C809E8DCA0468A
:104420001C4601322C44072ACDE92624C9E900851F
:1044300000F3728309F10809069BDD0500F127826C
:10444000269B0E9AC9F800200C9AC9F80420013363
:104450001444072B2794269300F30F8309F10809CE
:10446000069B580739D50B9B079A9D1A002D34DD02
:10447000102D269B1FDD10260A9F04E0103D102DF5
:1044800009F1080917DD0133684A1034072BCDE91B
:104490002634C9E90026F1DD25AA5946384603F03D
:1044A000BFFE00287FF4AFAE103D102DDDE92634AD
:1044B0000DF1C809E7DC01335C4A2C44072BCDE938
:1044C0002634C9E9002508DD25AA59460A9803F0D3
:1044D000A7FE00287FF497AE279C099B0B9A0799AB
:1044E0008A42ACBF9B185B180993002C7FF483AE03
:1044F000002326939AF800300DF1C809002B7FF4B1
:104500007DAD279BD846002B40F0C2860023269322
:104510007AE648F040089AF800609FE59AF8006053
:104520006C2E03BF9AF8016048F020080AF1010AD6
:1045300048F0100892E548F080089AF800608DE590
:10454000002A40F086873A4B159318F0200F7BD055
:104550000D9C073424F00703D3E9004503F108025A
:104560000D9218F0010F00F0D58254EA050300F017
:10457000D18230238DF878308DF8796048F00208C8
:104580000223089A002701328DF877707FF484AEF9
:10459000CDF81880012B00F0AF82022B00F0798259
:1045A00032A900E01146E20842EA4572E80804F048
:1045B000070305461446303354EA050001F8013C70
:1045C00001F1FF32EED106980E92C00740F17482DD
:1045D000302B00F058850E9A3023023902F8013C46
:1045E00032AB5B1A0C930E916FE60D9900230A68AB
:1045F0008DF877301F468DF8A02001230A1DCDE9E4
:104600000683CDE90C3228AB08970F970E9368E626
:104610009AF8006000297FF421AD012220211DE5D8
:1046200048F001089AF8006018E500BF88A8000863
:1046300054A8000898A80008002A40F01287B64B3A
:10464000159318F0200F83D10D9B18F0100F53F81D
:10465000044B0D9340F0F28218F0400F00F0EE8210
:10466000A4B200257DE70D9A13680E9300258DF8FE
:104670007750141D002B00F0E984089A531C00F0B9
:10468000438529460E98FFF76BFA002800F0B184A5
:104690000E9B0895C31A0C930D94CDF8188023EA4D
:1046A000E37307930F959DF8777016E6002A40F0A4
:1046B000C4860D9A18F0200F52F8043B0D9200F0BA
:1046C000A283099A1046D117C3E9000191E40D9B1A
:1046D0009AF8006018680B90002803F10403C0F2F8
:1046E00060840D93BAE49AF8006001222B21B5E4AE
:1046F000002A40F0A6860D9C073424F0070494EDB0
:10470000007B52EC171B22F0004317938DED167AB5
:104710000834DDE916014FF0FF32804B0D948DED2A
:10472000107B04F079FD002840F07C834FF0FF32CD
:104730007A4BDDE9160104F051FD002840F0728348
:1047400000220023DDE9100104F03EFD002840F0C6
:104750002C849DF87770724A724B0321002028F058
:104760008004472ED8BF1A46CDE9071006940E9252
:104770000C910F90B1E50D9A674B146815930432B4
:1047800047F63003ADF8783048F002080D92002566
:1047900002237826F5E648F020089AF800605DE4E8
:1047A00048F008089AF8006058E49AF800602A2E49
:1047B0000AF1010000F01586A6F13003092B8246AC
:1047C00000F20C8500201AF8016B00EB800003EB6F
:1047D0004000A6F13003092BF5D9089040E4002AE7
:1047E00040F0278648F0100818F0200F7FF43FAD06
:1047F0000D9B18F0100F53F8044B0D9340F01082EE
:1048000018F0400F00F00C8224B2E51738E59AF852
:10481000006048F0040821E40D9C073424F00703ED
:1048200003F10802D3E900450D920023A9E60D9C8F
:10483000073424F0070303F10802D3E900450D9281
:1048400001239EE6D8F85800FFF702F9B8F80C30BB
:10485000E3E4D8F85800FFF7FBF84FF0FF33099373
:10486000DDE4002A40F0F985002E3FF44AAE002333
:1048700001221F468DF8773008930F9328AB0792DB
:104880008DF8A060CDF818800C920E9329E5652E66
:1048900040F3A48000220023DDE9100104F08AFC2B
:1048A000002800F04581269B1F4AC9F800200133EB
:1048B00001340122072BCDE92634C9F8042000F386
:1048C000658309F108091F9B129A279C934203DB19
:1048D000069BD8077FF5C4AD269B149AC9F8002023
:1048E000139AC9F8042001331444072BCDE9263468
:1048F00000F3A08309F10809129B5D1E002D7FF7CC
:10490000AFAD102D269ADFF8248040F35082474641
:104910001026DDF8288011E068A80008FFFFEF7F6F
:1049200048A8000844A8000884A8000898A800081F
:1049300009F10809103D102D40F33882013210347E
:10494000072ACDE92624C9E90076F1DD25AA5946D2
:10495000404603F065FC00287FF455ACDDE92624D1
:104960000DF1C809E6E70B9B079A9D1A002D7FF70A
:104970002AAD102D269ADFF8748823DD23461027F0
:104980004446DDF8288004E0103D102D09F10809A7
:1049900016DD01321033072ACDE92623C9E9004785
:1049A000F2DD25AA5946404603F03AFC00287FF480
:1049B0002AAC103D102DDDE926230DF1C809E8DCF5
:1049C000A0461C4601322C44072ACDE92624C9E919
:1049D000008500F3998209F10809F4E4129A269BF4
:1049E000012A04F1010403F1010509F1080640F36D
:1049F000278101230E9AC9F80020072DCDE92654FE
:104A0000C9F8043000F3B681139B149A01351C4495
:104A1000072DCDE92654C6E9002300F3B7810836F7
:104A20006B1C1F460897129F0C9300220023DDE9A0
:104A30001001013F06F1080904F0BCFB002840F01A
:104A4000C6803C440E9B7760089F27940133072F54
:104A50003360269700F3078106F11003AA1C4E4627
:104A600008929946189A72601444089A279421ABC8
:104A7000072A269233607FF7F3AC25AA59460A9895
:104A800003F0CEFB00287FF4BEAB279C0DF1C809D4
:104A9000E6E4DDF854C032AA230904F00F0043EA2B
:104AA000057329091C460D461CF8003002F8013D2B
:104AB00054EA0503F0D10E9232AB9B1A0C9304E436
:104AC00025AA59460A98199303F0AAFB00287FF4F7
:104AD0009AAB279C199B0DF1C80961E425AA594698
:104AE0000A9803F09DFB00287FF48DAB279C0DF105
:104AF000C80964E4CDF81880002D08BF0A2C80F0A6
:104B0000608142AB303403F8414D0E9301230C9386
:104B1000FFF7DBBB022334E525AA59460A9803F0C8
:104B20007FFB00287FF46FAB279C0DF1C80983E45D
:104B30001F9B002B40F3F5810F9B129A9342A8BF55
:104B40001346002B1D460EDD269B0E9AC9F8002049
:104B500001332C44072B2794C9F80450269300F303
:104B6000F68209F108090F9B002DA8BF5B1B002BE3
:104B70001D4640F3A480102B269ADFF8708640F380
:104B8000768247461026DDF8288005E009F10809FD
:104B9000103D102D40F36A8201321034072ACDE90E
:104BA0002624C9E90076F1DD25AA5946404603F0DE
:104BB00037FB00287FF427ABDDE926240DF1C80977
:104BC000E6E7089B0C9332AB0E93FFF77EBB002FFA
:104BD0007FF748AF102FDFF8148640F3FD8323469C
:104BE0004FF0100944460C9DDDF8288005E008369A
:104BF000103F102F40F3098201351033072DCDE906
:104C00002653C6E90049F2DD25AA5946404603F07D
:104C100007FB00287FF4F7AADDE9265332AEE7E769
:104C2000E517002C75F10003BFF62FAB2D2764426A
:104C300065EB45058DF87770FFF729BB002590E4FB
:104C4000069AD7073FF5D5AE01220E99C9F8001094
:104C5000072DCDE92654C9F8042004DC023308935B
:104C600009F11009FEE625AA59460A9803F0D8FA78
:104C700000287FF4C8AADDE92634013308930DF13A
:104C8000D00932AEEEE625AA59460A98199303F0E8
:104C9000C7FA00287FF4B7AA9DF87770279C199B64
:104CA0000DF1C809FFF76CBB25AA59460A9803F015
:104CB000B7FA00287FF4A7AA279C0DF1C8091F9B0B
:104CC000129A934202DB069AD2070FD5269A1499BC
:104CD000C9F800101399C9F8041001320C44072ACE
:104CE0002794269200F33F8209F10809129A0F983F
:104CF000D31A151A9D42A8BF1D46002D0FDD269A16
:104D00000E99C9F80450013201442C44072AC9F80D
:104D10000010CDE9262400F35A8109F10809002D7D
:104D2000ACBF5D1B1D46002D7FF79AAB102D269A58
:104D3000DFF8B8843BDD47461026DDF8288004E024
:104D400009F10809103D102D30DD01321034072A19
:104D5000CDE92624C9E90076F2DD25AA5946404668
:104D600003F05EFA00287FF44EAADDE926240DF157
:104D7000C809E7E725AA59460A9803F051FA00281E
:104D80007FF441AADDE9265432AE3DE625AA594614
:104D90000A9803F045FA00287FF435AADDE9265485
:104DA00032AE3DE6012B7FF4F8ABAAE6B8460132FD
:104DB0002C44072ACDE92624C9E900857FF74EABAC
:104DC0005BE632AB9846204629460A22002304F0CF
:104DD00061FA303208F8012D2046294600230A22C4
:104DE00004F058FA04460D4654EA0503EBD1424656
:104DF00032AB9B1ACDF838800C93FFF766BA32AB12
:104E00000E93FFF762BA18F0100F07D118F0400F99
:104E100004D0BDF824201A80FFF7EBB8099A1A6075
:104E2000FFF7E7B8DDE9100102460B4604F0F4F99C
:104E3000002840F0B382089B5C1C26F0200700F09D
:104E4000D580472F03D1002B08BF01230893119B66
:104E500048F48072002B0692C0F29E819DED107B7B
:104E60008DED1A7B00231993662E00F09E81462E4D
:104E700000F0FD81452F00F0DC8123A820A91FAAA6
:104E80000223089C0292CDE9031000930194DDE90E
:104E90001A230A9800F0A8FC672E0E9040F0C782F3
:104EA00018F0010F00F0F5800E9B089A9C18002264
:104EB0000023DDE91A0104F07DF9002800F060818B
:104EC00023460E9A9B1A1293472F1F9B0F9300F0B5
:104ED000E980662E40F0ED800F9B002B089B40F38D
:104EE0007382002B40F0508218F0010F40F04C828A
:104EF0000F9B07930C93199B002B40F01081089394
:104F00009DF87770FFF7E9B925AA59460A9803F08A
:104F100087F900287FF477A9279C0DF1C809FFF7CE
:104F200052BA269AAF49C9F8001001320134012162
:104F3000072ACDE92624C9F804103BDC09F1080949
:104F40002BB9129A1AB9069AD1077FF589AA269A1F
:104F50001499C9F800101399C9F8041001320C44CF
:104F6000072A2794269200F3438109F10809002BB0
:104F7000C0F29881129B0E9901321C44072ACDE998
:104F80002624C9E900137FF769AA76E525AA5946C0
:104F90000A9803F045F900287FF435A90DF1C809F6
:104FA00091E440420B900D9333E42D278DF87770F8
:104FB000FFF7D1BB25AA59460A9803F031F900281A
:104FC0007FF421A91F9B279C0DF1C809B8E725AAEA
:104FD00059460A9803F024F900287FF414A91F9B6E
:104FE000129A279CD31A0DF1C80998E60623089354
:104FF0002DE7089B07930C9308900D94CDF818802B
:105000000F909DF87770FFF768B9A0461C466B1C9F
:10501000089306F10802089B26933C44072B27942B
:10502000C6E900873FF71FAE0133089302F1080974
:10503000164617E525AA59460A9803F0F1F8002804
:105040007FF4E1A8279C0DF1C80955E4089B0E9F49
:105050000897062B28BF062307930C93624B0D94E9
:10506000CDF818800F970E93FFF737B9B846013285
:105070002C44072ACDE92624C9E900853FF714AE60
:1050800009F108091BE60E9A32AB9B1A0C93FFF745
:105090001CB91F9A239B0F920E9A472FA3EB020372
:1050A000129306D10F9BDA1C02DB089A9A423DDA72
:1050B000023E0F9B8DF88460013B002B1F93BDBF08
:1050C0000F9BC3F101032D222B22092B8DF8852084
:1050D00000F31981303330228DF887308DF8862027
:1050E00022AB21AA9B1A129A1893012A13440C93FB
:1050F00040F360810C9B139A13440C9323EAE373EF
:10510000079300230F93F6E60E980895FEF7B8FE76
:10511000CDF81880CDE90C040346FFF7C0BA2D275F
:1051200000238DF877700893FFF7D8B80F9B12997A
:105130008B426BDB18F0010F00F020810F9B139A5C
:1051400013440C9323EAE37307936726D3E625AA57
:1051500059460A9803F064F800287FF454A8279C65
:105160000DF1C809FFE425AA59460A9803F058F83A
:1051700000287FF448A81F9B279C0DF1C809B5E5BE
:10518000239BA342BFF49DAE30215A1C2392197079
:10519000239B9C42F9D894E6DDE9101202F100430A
:1051A0001B932D231A9119935EE6089D019523A860
:1051B00020A91FAA0323CDE90310029200930A98A5
:1051C000DDE91A2300F010FB0E9044190E9B1B78AA
:1051D000302B00F0C5801F9D2C4468E60023089307
:1051E000FEF73EBF84A800087CA8000898A8000825
:1051F00025AA59460A9803F013F800287FF403A85B
:105200001F9BDDE926240DF1C809B0E6DDE9123265
:1052100013440F9A0C93002A06DC0F9B0C9AC3F1DF
:1052200001031A4413460C9223EAE373079367269B
:1052300061E6089B23A85D1C20A91FAA0223CDE9D3
:105240000310029200930195DDE91A230A9800F0F9
:10525000CBFA0E90472E40F0D78018F0010F00F0E7
:10526000CC800E9B462E03EB0504AFD01FE623A88F
:1052700020A91FAA0323089D0292CDE903100093E1
:105280000195DDE91A230A9800F0AEFA0E90E8E7DE
:105290000A9825AA594602F0C3FF00283FF436A910
:1052A000FEF7B2BF5D421033DFF8CC811FDA47460C
:1052B0001026DDF8288004E009F10809103D102DC2
:1052C00014DD01321034072ACDE92624C9E900761D
:1052D000F2DD25AA5946404602F0A2FF00287EF4DE
:1052E00092AFDDE926240DF1C809E7E7B84601329F
:1052F0002C44072ACDE92624C9E9008500F38780DC
:1053000009F1080936E60DF193042046574D00E0F7
:105310001046A5FB0312D20802EB8201A3EB410366
:1053200003F130011346092B00F8011C00F1FF3294
:10533000EEDC30330238D9B2844202F8011C73D952
:105340000DF18600134601E013F8011B00F8011B64
:105350009C42F9D125AB9B1A0DF186021344C0E69D
:1053600000220023DDE91A0103F024FF00287FF466
:1053700032AFC5F101051F952C4498E523EAE3728D
:1053800007920C936726B6E50F9B139A1344089A6D
:105390001A4422EAE2730C920793ACE5119B344A5B
:1053A000002BB6BF2D279DF877708DF87770314BA5
:1053B000FFF7D3B918F001030F937FF49BAE0C9B5A
:1053C00023EAE373079396E543B918F0010F05D17B
:1053D000012307930C938EE54A461CE6139B013389
:1053E000D5E70D9C9AF80160236843EAE3730893BC
:1053F000231D82460D93FEF731BE1F9A239B0F9209
:105400000E9A9B1A12934DE60E9B5C194FE525AA46
:1054100059460A9802F004FF00287EF4F4AEDDE954
:1054200026240DF1C809A5E50DF1860359E6089D6E
:1054300010E78DF87710FFF7D5B98DF87710FFF7E3
:1054400038B98DF87710FFF756B98DF87710FEF759
:105450000ABF8DF87710FFF776B88DF87710FFF751
:1054600003BA8DF87710FFF7EAB800BFCDCCCCCCEB
:1054700050A800084CA8000898A8000810B4044CD4
:1054800013460A46014620685DF8044BFEF768BDE6
:10549000DC0200202DE9F0410C46ADF58D6D8989C7
:1054A000666EE589199621F002010646E069ADF8BD
:1054B0000C1017464FF48061626AADF80E509846A2
:1054C0001AAD0023079016A809920693009504953B
:1054D00002910591FEF7B6FA43463A4669463046D0
:1054E000FEF73EFD051E07DB30466946FEF78EF9E6
:1054F000002818BF4FF0FF35BDF80C305B0603D510
:10550000A38943F04003A3811698FEF79DFA28462D
:105510000DF58D6DBDE8F08170B5141E9AB005468D
:105520002CDB1A464FF4027300910491ADF80C3055
:1055300013D0013C4FF6FF761E9B029469460594FA
:10554000ADF80E6001F000FC421C01DA8B232B60E9
:10555000009B00221A701AB070BD1E9B02944FF679
:10556000FF7669460594ADF80E6001F0EDFB431C33
:1055700001DB1AB070BD8B232B60FAE78B2303602D
:105580004FF0FF30F5E700BF10B582B0054C009337
:10559000246813460A4601462046FFF7BDFF02B0C5
:1055A00010BD00BFDC02002070B50D46084C11464E
:1055B00006461A46284600232360FBF747FC431C97
:1055C00000D070BD2368002BFBD0336070BD00BFDE
:1055D0002012002038B5314B1B6805460C4613B12C
:1055E0009A6B002A3AD0B4F90C2093B218070CD564
:1055F0002069A8B113F0010220D0636900225B4248
:10560000A361A26000B3002038BDD9063ED558077B
:1056100028D4206942F00803A3819BB20028E9D175
:1056200003F42072B2F5007FE4D028462146FEF74D
:105630003FFAA389206913F00102DED1990758BF10
:105640006269A2600028DED1B4F90C301A06DBD5FD
:1056500043F04003A3814FF0FF3038BD1846FEF7FA
:1056600043F9C0E7216B51B104F14003994204D0E2
:10567000284603F093FFB4F90C2000232363002392
:105680002069636022F024022060C3E742F04002F8
:1056900009232B604FF0FF30A28138BDDC020020CF
:1056A00038B5074C0023054608462360FBF7B2FBDC
:1056B000431C00D038BD2368002BFBD02B6038BDC5
:1056C000201200202DE9F04F03690F69BB4283B01F
:1056D000C0F28680013F01F1140900F1140A59F863
:1056E00027205AF82730BC000132B3FBF2F80AEB4E
:1056F0000403009409EB040B0193B8F1000F38D0B8
:1057000000252E46CE46D4465EF8044BDCF8003029
:10571000A2B208FB0255220C2C0C08FB0242ADB2CF
:10572000751B96B2C6EB134615FA83F306EB2346B8
:105730009BB243EA0643F3454FEA12454CF8043B5B
:105740004FEA2646E0D2009B5AF803308BB9019A03
:10575000131F9A450CD252F8043C4BB9A2F108032E
:1057600002E01A68043B1AB99A4507F1FF37F8D3EB
:105770000761044601F0E2F900282DDB08F1010879
:105780005546002359F8041B28688AB29A1A0B0C54
:1057900012FA80F2C3EB104303EB224392B242EAC7
:1057A0000342CB4545F8042B4FEA2343EAD25AF88B
:1057B00027200AEB87037AB91A1F92450BD253F8B8
:1057C000042C42B9083B02E01A68043B1AB99A4516
:1057D00007F1FF37F8D32761404603B0BDE8F08FEB
:1057E000002003B0BDE8F08F2DE9F04F016C97B0B9
:1057F00014461D468346CDE9024549B1426C4A60D4
:10580000012393408B6000F0A9FF0023CBF84030C8
:105810002E1E239AB4BF012300231360784BBCBF14
:1058200026F000460396B34300F0A880DDE9028924
:10583000002200234046494603F0BCFC054678B1EF
:10584000229A01231360249B002B00F0C4806D4B2F
:10585000249A1360013B0493049817B0BDE8F08FBD
:1058600014AA15ABCDE90032584642464B4601F02A
:10587000F7F9340D824640F0A380DDE914542C443E
:1058800004F23243202B40F31384C3F140039E40C3
:10589000029B04F2124023FA00F0304303F0A8F90F
:1058A00001238046013CA1F1F87912930022564B66
:1058B0004046494603F05EF84BA3D3E9002303F0CA
:1058C00011FA4BA3D3E9002303F056F8064620460D
:1058D0000F4603F09DF948A3D3E9002303F002FA31
:1058E00002460B463046394603F046F806460F4658
:1058F00003F0A8FC0022059000233046394603F04F
:1059000063FC002840F06C82059E162E00F25D823A
:105910003E4B03EBC603D3E90001DDE9022303F0AC
:1059200071FC002800F0C083731E059300230A93C6
:105930002C1B059BB4F1010846BFC4F101094FF0CF
:1059400000084FF00009002BC0F2428298440993EE
:1059500000230893209B092B60D8052B40F3A683D6
:10596000043B20930025209B023B032B00F28984FB
:10597000DFE813F0C503A503CF03E604229A42F241
:105980000F731360029B7BB9C6F3130666B9249BA1
:10599000002B00F00E861E4B04930833249A0498C3
:1059A000136017B0BDE8F08F249B2BB9194B0493FB
:1059B000049817B0BDE8F08F164B04930333EDE75E
:1059C000C9F3130343F07F591295A4F2FF3449F44D
:1059D0004019149D6AE7104B0493049817B0BDE872
:1059E000F08F00BFAFF3008061436F63A787D23FA2
:1059F000B3C8608B288AC63FFB799F501344D33FBE
:105A00000000F07F85A800080000F83FE0A800082B
:105A1000A8A80008B4A8000884A800084FF0FF3424
:105A20000125CDE906450023209321930021CBF8E1
:105A300044100B94584600F06BFE0E2C0490CBF8EB
:105A4000400000F2F780002D00F0F4809DED027B15
:105A5000059900298DED0C7B40F3D183C14B01F0FA
:105A60000F0203EBC20393ED007B0C11E3068DEDF7
:105A7000027B40F18684BC4BDDE90C01D3E90823AD
:105A800003F05AFACDE90E0104F00F0403267CB1AD
:105A9000DDE90201B44DE70704D5D5E9002303F0A1
:105AA00021F90136641005F10805F4D1CDE90201B0
:105AB000DDE90223DDE90E0103F03EFACDE9020142
:105AC0000A9B43B10022A94BDDE9020103F07CFBF4
:105AD000002840F0E984304603F09AF8DDE902231B
:105AE00003F000F9A24B002202F046FF069B064697
:105AF000A1F15077002B00F00884059B1393069BBF
:105B00000E93DDE9020103F09DFB0E9A954B03EB2A
:105B1000C20313ED027B00F130058DED107B03F025
:105B200077F802460B46DDE90201CDE9026702F093
:105B300021FF049B064607985C1CEDB20F46DDE989
:105B40001023002800F0438400208A4903F0F4F970
:105B5000DDE9022302F00EFF049A3B46157032463F
:105B6000CDE9020103F04EFB002840F0ED843246FF
:105B70003B4600207D4902F0FDFE02460B46DDE972
:105B8000020103F03FFB002840F0E3840E99012955
:105B90004CD0049ACDF838901144CDF84080DDE91E
:105BA0000289CDF808A08A460CE000206F4902F077
:105BB000E1FE42464B4603F007FB002840F0C78455
:105BC00054452DD04046494600226B4B03F08AF8DD
:105BD0000022694B804689463046394603F082F8F8
:105BE0000F46064603F02EFB054603F011F8024669
:105BF0000B463046394602F0BDFE3035EDB2424626
:105C00004B4604F8015B06460F4603F0DDFA3246C8
:105C10003B460028C9D0139BDDF808A0059317E286
:105C2000DDF83890DDF84080DDF808A0DDE90C34BF
:105C3000CDE90234159B002BC0F2AD80059A0E2AE7
:105C400000F3A980474B03EBC203D3E90089219BF2
:105C5000002BC0F2B182DDE9026742464B46304676
:105C6000394603F069F903F0EDFA054602F0D0FF7A
:105C700042464B4603F036F802460B46304639465C
:105C800002F078FE049A05F130031370069B012B95
:105C900006460F4602F1010446D00022364B03F0BF
:105CA00021F80022002306460F4603F083FA00285D
:105CB00040F0CE81CDF808A0DDF818A0CDF818B0DE
:105CC000DDF810B00AE003F00DF8002200230646CC
:105CD0000F4603F06FFA002840F03C8342464B46E3
:105CE0003046394603F028F903F0ACFA054602F0D5
:105CF0008FFF42464B4602F0F5FF02460B46304608
:105D0000394602F037FE05F1300C04F801CBA4EB64
:105D10000B0CE24506460F464FF00002164BD2D15F
:105D2000DDF808A0DDF818B032463B46304639466B
:105D300002F022FE42464B4606460F4603F062FA48
:105D400058B942464B463046394603F033FA0028EC
:105D500000F07E81EB0740F17B8114F8015C049A2E
:105D600012E000BFE0A80008B8A800080000F03F5B
:105D700000001C400000E03F000024409A4200F078
:105D80001C8313F8015C1C46392D04F1FF33F5D058
:105D900001351D705CE1079A92B3209A012A40F305
:105DA0000082069B5F1E089BBB42C0F2D882DF1BAD
:105DB000069B002BC0F2F7824C469844994401217F
:105DC000584600F065FD05461DE001230A93AFE546
:105DD000059BA9EB03095B42089300230993B9E5EE
:105DE000DDF81480404602F013FF32463B4603F0D4
:105DF000E1F900287FF488AD08F1FF33059383E5CE
:105E0000089F079D4C46002C0BDDB8F1000F08DD04
:105E100044452346A8BF4346A9EB0309E41AA8EB6F
:105E20000308089B6BB1079A002A00F08C82DE1BE6
:105E3000002F40F08C8151463246584600F0D8FD84
:105E400082460121584600F023FD099A0646002AA1
:105E500040F01681209B012B40F35E8101204044DD
:105E600010F01F0000F00781C0F12003042B40F365
:105E7000A483C0F11C00814404448044B9F1000FA4
:105E800005DD51464A46584600F002FE8246B8F10A
:105E9000000F05DD31464246584600F0F9FD064642
:105EA0000A9B002B73D1069B002B40F30782079BB4
:105EB000002B00F08580002C00F35E81099B002BF5
:105EC00040F0C681A846029A049F02F0010209929E
:105ED000069A7B1E1A44079231465046FFF7F2FBA2
:105EE000294681460890504600F028FE314602902F
:105EF0004246584600F03EFEC368044609F13009A8
:105F00000146002B40F0D581504600F017FE214697
:105F10000690584600F022FC069B33B9209A22B91D
:105F2000099B002B00F01983209B029A002AC0F2E3
:105F30001E8205D1209A1AB9099A002A00F0178208
:105F4000002B07F1010400F32382079B87F80090E0
:105F5000BB4200F02C82514600230A22584600F032
:105F600007FC4545824629464FF000034FF00A02E0
:105F7000584600F0988100F0FBFB4146054600239F
:105F80000A22584600F0F4FB27468046A4E7314633
:105F9000504600F0D3FD002885DA059F51460023C6
:105FA0000A225846013F059700F0E2FB079B824614
:105FB000002B40F0E2820B9B002B40F3EA82069319
:105FC000DDF81080069F444602E000F0D1FB8246D7
:105FD00031465046FFF776FB00F1300904F8019B8B
:105FE000A4EB08039F424FF00A024FF00003514612
:105FF0005846EADC0023029351460122584600F03D
:1060000047FD3146824600F099FD002814F8012C26
:1060100040F3B980049905E0994200F05C8113F8DF
:10602000012C1C46392A04F1FF33F5D001321A70D5
:106030003146584600F092FB55B1029921B1A94270
:1060400002D0584600F08AFB2946584600F086FBED
:106050005146584600F082FB0022059B2270229A8E
:1060600001331360249B002B3FF4F6AB04981C60B3
:1060700017B0BDE8F08F1C20814404448044FDE645
:106080000146584600F0B4FC209B012B064640F325
:10609000F38000230993336906EB8303186900F04A
:1060A000A7FBC0F12000DAE60A9041E401255AE49A
:1060B000C3F12006029B03FA06F0FFF7EFBB0023B3
:1060C0000793059B219A13440B930133012B1E4622
:1060D0000693B8BF01260021172ECBF84410069C6A
:1060E0007FF7A8AC012204235B0003F11400B04247
:1060F000114602F10102F7D9CBF844109AE40023CB
:106100000793219B002B40F3ED800B9306931E46D3
:10611000E1E701230793F4E7029B002B7FF49EAE97
:10612000DDE90212C2F31303002B40F0998122F043
:1061300000431B0D1B0523B109F1010908F10108FA
:106140000123099A0993002A3FF488AEA3E73A464F
:106150002946584600F04CFC524601460546584632
:1061600000F0A0FB51460746584600F0F7FABA4641
:10617000002E3FF466AE5EE629462246584600F001
:1061800087FC05469AE607D119F0010F7FF442AF6C
:1061900002E014F8022C1C46302A04F1FF33F8D038
:1061A00046E7129A002A00F0538103F233434C462B
:1061B00098449944089F02E6069B002B3FF74BAD9D
:1061C00040F0BB800022B24B4046494602F08AFDB7
:1061D000DDE9022303F00CF8069E3546002875D150
:1061E000059A01320592049A31231370541C3146EA
:1061F000584600F0B3FA002D7FF426AF28E700F0F0
:106200003F81059B5C42A34B04F00F0203EBC203EA
:10621000D3E90023DDE90C0102F064FD2411CDE98E
:10622000020100F0BB819C4D00230226E20705D548
:10623000D5E9002302F056FD01360123641005F173
:106240000805F3D1002B3FF43BACCDE9020137E464
:106250006968584600F05CFA2B6902339A000446DC
:1062600005F10C010C30FDF7CBFC2146012258460C
:1062700000F00EFC804626E6029B002B3FF450AF58
:1062800007E70024CBF844402146584600F040FA86
:106290004FF0FF330B930693012304902194CBF826
:1062A00040000793C6E400F063FA2746054680469F
:1062B00012E6584600F052FA012336E6209B022BE4
:1062C0007FF7F5AD069B002B00F0CC80219B049C52
:1062D000DB4305938BE7059A01320592049A31233B
:1062E0001370A5E6012421940694FFF79FBB304666
:1062F00002F08EFCDDE9022302F0F4FC0022674B81
:1063000002F03AFB0646A1F150770022604BDDE92E
:10631000020102F02FFB32463B4604460D4602F0D6
:1063200071FF002846D1324607F100432046294636
:1063300002F04AFF00283FF479AC00263546C5E755
:1063400001230793BDE65146089A584600F050FBDA
:10635000824676E5DDF808A0DDF818B078E6089BFF
:10636000099AFB1A1A44CDE90872002720E5002B90
:1063700007F1010400F3BC80029587F800904546C0
:1063800056E69DED0C7B02268DED0E7BFFF77FBB65
:10639000B9F1390F00F0BE8009F10109029587F8C3
:1063A0000090454644E6069BA9EB030407E50295E9
:1063B000454621E60026354612E7049A302313703D
:1063C000059B14F8015C013305931346E0E4DDE915
:1063D000020102F087FC049B1D700E9B012BCDE98E
:1063E000020123D00E9B049ACDF838901344C14685
:1063F000984600222A4B3046394602F073FC0F467D
:10640000064602F01FFF054602F002FC3035024648
:106410000B463046394602F0ADFA04F8015B4445BC
:1064200006460F46E5D1C846DDF838901D4B0022E0
:10643000DDE9020102F0A0FA32463B4602F0C4FE5A
:1064400000286DD0139B059314F8015C049A9BE41B
:10645000149B089FC3F136034C4698449944AEE41C
:1064600000236EE631460522584600F081F90146C8
:106470000646504600F062FB00283FF7B1AE25E724
:106480009DED0C7B02268DED027BFFF719BB00BF53
:1064900000001440E0A80008B8A8000800001C4054
:1064A000000024400000E03F069B002B3FF41FAF9C
:1064B0000B9C002C7FF7BAAB0022424BDDE90201B6
:1064C00002F010FCCDE90201701C02F0A1FBDDE935
:1064D000022302F007FC3C4B002202F04DFA059B20
:1064E0000E94013B0646A1F150771393FFF709BBC9
:1064F00051460122584600F0CBFA3146824600F060
:106500001DFB002832DDB9F1390F03D0089B03F1E0
:10651000310931E7392202953A704546049981E5FF
:10652000DDE902230020294902F024FA32463B46E5
:1065300002F068FE10B9FFF779BB144614F8013C6D
:10654000302B04F1FF32F8D0139B059380E5DDF882
:1065500008A0139B0593049A16E4B9F1390F07F1CB
:106560000104D7D0029B002BD0DC05E77FF404AFF9
:1065700019F0010F3FF400AFC5E7294600230A22B6
:10658000584600F0F5F80B9B002B054609DD0693F5
:1065900091E4209B022B09DC0B9B10E50226FFF700
:1065A0008FBA209B022B01DC0B9BF0E70B9B069321
:1065B00088E6074B0493FFF74FB93FF45FACC0F197
:1065C0003C0059E50000244000001C400000E03F72
:1065D000A8A8000870B5002948D005460C4610B19F
:1065E000836B002B48D0626EB4F90C30D00740D4D6
:1065F000990530D521462846FDF75EF8E36A064640
:1066000033B1E169284698470028B8BF4FF0FF36FC
:10661000A3891A063CD4216B41B104F1400399428D
:1066200002D0284602F0BAFF00232363616C21B137
:10663000284602F0B3FF00236364FDF781F9636E1F
:106640000022DB07A2811FD5A06DFDF7FDF9FDF744
:106650007DF9304670BDA06DFDF7F8F9B4F90C3046
:10666000002BC7D1666E16F0010616D00026304604
:1066700070BD002BFAD0BDE7FDF736F9626EB4F9B4
:106680000C30D007F5D4B3E7A06DFDF7E1F9DBE7F7
:106690002169284602F082FFBDE7A06DFDF7D8F919
:1066A000304670BD38B5074C0023054608462360C8
:1066B000FAF71CFC431C00D038BD2368002BFBD02C
:1066C0002B6038BD20120020044A054B1268506B25
:1066D000002808BF1846F030704700BFDC020020D9
:1066E0000807002070B50D46084C114606461A46AC
:1066F000284600232360FAF715FC431C00D070BD28
:106700002368002BFBD0336070BD00BF2012002037
:10671000C36C70B505460C464BB153F8240080B1EC
:10672000026843F824200023C0E9033370BD21220E
:10673000042102F035FF0346E8640028EDD1002073
:1067400070BD012101FA04F6721D2846920002F084
:1067500027FF0028F3D0C0E90146E4E731B1C36C5C
:106760004A6853F82200086043F82210704700BFBF
:10677000F0B50C6983B00D46064601F1140C0027F4
:10678000DCF8000081B202FB0133010C180C02FBA3
:1067900001019BB2013703EB0143BC424CF8043BBF
:1067A0004FEA1143ECDC3BB1AA68A24207DD05EBDE
:1067B0008402013453612C61284603B0F0BD69683E
:1067C000019301313046FFF7A3FF2A69023205F138
:1067D0000C01074692000C30FDF712FAF26C696862
:1067E000019B52F82100286042F821503D46DEE727
:1067F000020C12040346C2B90304102013F07F4FA9
:1068000004BF1B02083013F0704F04BF1B0104309B
:1068100013F0404F04BF9B000230002B04DB5B00F1
:1068200001D501307047202070470020E6E700BF07
:10683000036813F00702014607D0DA071FD4980750
:106840001FD55B080B600120704798B2A0B11046BD
:1068500013F0FF0F04BF1B0A08301A0704BF1B09FF
:1068600004309A0704BF9B080230DA0702D45B08A1
:106870000BD001300B6070471B0C1020E8E70020A4
:1068800070479B080B60022070472020704700BFB4
:1068900010B50C460121FFF73BFF0122C0E904249B
:1068A00010BD00BF2DE9F04F0E691469A64283B0F8
:1068B0000F46154604DA32462F4626460D46144644
:1068C000D7E9011306EB04084345B8BF0131FFF7D0
:1068D0001FFF00F1140909EB880EF145009005D265
:1068E0004B46002243F8042B9E45FBD805F1140AC1
:1068F0000AEB840407F11403A24503EB860C61D272
:10690000641B153C24F00304CDF804E0A24405F117
:1069100010029E4605E02D0C2BD1924509F1040989
:106920004ED052F8045F1FFA85FBBBF1000FF2D086
:1069300077464E46002000E0264657F8041B346890
:106940008BB2A5B2090C240C0BFB035303440BFBC5
:10695000014000EB134034469BB243EA0043BC4580
:106960004FEA104044F8043BE6D8706015682D0CDF
:10697000D3D0D9F8003076461846CB46002100E047
:10698000A3463488000C05FB040001449BB25C461E
:1069900043EA014344F8043B56F8043BDBF80400A7
:1069A0001B0C87B205FB037303EB1143B4454FEA9D
:1069B0001341E5D89245CBF8043009F10409B0D170
:1069C000DDF804E0B8F1000F0BDD5EF8043CAEF139
:1069D000040E1BB105E05EF8043D13B9B8F10108DF
:1069E000F9D10098C0F8108003B0BDE8F08F00BF67
:1069F00012F003032DE9F041144607462ED10D464F
:106A0000A4101CD0BE6C96B3E3074FF0000806D468
:106A1000641014D03068A8B10646E307F8D53246B2
:106A200029463846FFF73EFFB5B16A68FB6C641033
:106A300053F82210296043F822500546EAD128462F
:106A4000BDE8F081324631463846FFF72BFF306013
:106A5000C0F800800646E0E70546D9E7013B0B4A4F
:106A600052F823200023FFF783FE0546C8E70121E3
:106A70003846FFF74DFE40F27123436101220023A7
:106A800002610646B8640360BEE700BFA8A900081B
:106A90002DE9F04791460A690E464FEA6914D1E99B
:106AA000011304EB020808F101059D42074604DDCD
:106AB0005B009D4201F10101FADC3846FFF728FE38
:106AC000002C00F1140337DD03EB8401002243F8AE
:106AD000042B8B42FBD1346906F1140319F01F0912
:106AE00003EB840C20D0C9F1200E002200E05146B7
:106AF0001C688A4604FA09F414434AF8044B53F814
:106B0000042B634522FA0EF2F1D34A600AB108F170
:106B10000205FB6C7268013D53F82210056131607B
:106B200043F82260BDE8F087043953F8042B41F89C
:106B3000042F9C45F9D8ECE71946CCE730B40B6933
:106B400005460069C01A0FD19B0014351431194451
:106B50002B4401E09D4207D253F8044D51F8042D17
:106B60009442F7D002D3012030BC70474FF0FF3081
:106B7000FAE700BF2DE9F04113690D69ED1A002D08
:106B80000E46904601F1140402F1140714D19B0043
:106B9000E2183B4401E0A24259D952F804CD53F81F
:106BA000041D8C45F7D009D2224633463C46464662
:106BB00017469846012501E0F6DB00257168FFF7CE
:106BC000A7FDD8F810303669C56007EB830EBC46C8
:106BD00000F1140504EB860700235CF8041B54F84D
:106BE000048B8AB213FA88F3090C9A1AC1EB184382
:106BF00003EB224392B242EA0342E64545F8042BF6
:106C00004FEA2343E9D8A74217D9AE46A4465CF819
:106C1000042B13FA82F3191401EB12419BB243EADD
:106C2000014267454EF8042B4FEA2143EFD8E44375
:106C3000274427F0030704373D44043D22B955F8A3
:106C4000043D013E002BFAD00661BDE8F081002131
:106C5000FFF75EFD01220023C0E90423BDE8F081B7
:106C60002DE9F04383B001211F4616460A9DFFF728
:106C70004FFDC7F30A548146C7F313030CB143F425
:106C80008013002E019323D002A840F8086DFFF76F
:106C9000CFFD002835D1DDE90023C9F81420002BF1
:106CA0000CBF01210221C9F81830C9F81010DCB955
:106CB00009EB8103A0F2324028601869FFF798FDC4
:106CC0000B9BC0EB41101860484603B0BDE8F08351
:106CD00001A8FFF7ADFD019BC9F814300121203058
:106CE000C9F81010002CE3D0A4F2334808EB0003DD
:106CF0002B600B9BC0F135001860484603B0BDE81F
:106D0000F083DDE90013C0F1200203FA02F20A4326
:106D1000C3400193C9F81420C1E700BF70B50D4608
:106D2000084C114606461A46284600232360FAF707
:106D3000B9F8431C00D070BD2368002BFBD0336032
:106D400070BD00BF201200202DE9F04FC5B00C46E9
:106D50000C9191460F930D90FFF7B6FC03681893C2
:106D60001846FDF78DF8A38917901D0603D52369F2
:106D7000002B00F01D879FED947B00238DED147B8D
:106D8000CDE928330DF1D0081393169319930A9384
:106D9000CDF89C80C246CB469BF80030002B00F01B
:106DA0009980252B5C4602D11CE0252B03D014F8DA
:106DB000013F002BF9D1A4EB0B0585B1DDE92832A9
:106DC00001332A44072BCAF800B0CAF80450CDE9B1
:106DD000283277DC0AF1080A0A9B2B440A932378AD
:106DE000002B77D000231A468DF87F3019460B937D
:106DF0001F464FF0FF306378099004F1010B0BF14F
:106E0000010B9946A9F12003582B00F27583DFE8A6
:106E100013F0C30273037303BE027303730373039C
:106E2000730373037303B202AD02730367034C036E
:106E300073036C03B600B600B600B600B600B60029
:106E4000B600B600B60073037303730373037303D2
:106E5000730373037303730373033703E40273034E
:106E6000E4027303730373037303DF027303730397
:106E7000A500730373037303730373037500730334
:106E800073038D0273037303730373037303730339
:106E900073037303730373037C012F01E402E402A1
:106EA000E4022A012F01730373031D017303090117
:106EB000A700CA00C5007303E100730377007303E2
:106EC0007303CB0227AADDE90C1001F03BFC40B9AB
:106ED000C24681E7299B23B10D980C9927AA01F09E
:106EE00031FC0C9B9B8913F0400F0A9B18BF4FF09D
:106EF000FF330A930A9845B0BDE8F08F47F01007BA
:106F0000BE0640F127850F9D073525F0070303F1E5
:106F10000802D3E900450F920123099A00260132A5
:106F20008DF87F6000F0288427F08002079254EAF1
:106F3000050240F0C080099A002A40F0B386002B79
:106F400040F0D68417F001030E9300F0488544AB5F
:106F50001A46302302F8413D1192CDE047F0100768
:106F600017F0200300F000850F9D073525F007037B
:106F700003F10802D3E900450F920023CDE7A9F100
:106F8000300300201BF8019B00EB800003EB400066
:106F9000A9F13003092BF5D90B9033E747F020070F
:106FA0009BF800302BE70F9A094B146816930432B4
:106FB00047F63003ADF8803047F002070F92002506
:106FC00002234FF07809A8E700000000000000004D
:106FD00068A800080F9A1368119300248DF87F4069
:106FE000151D002B00F00E86099A531C00F0B68682
:106FF00021461198FCF7B4FD002800F09C87119BF6
:107000000994C31A0E930F95079723EAE3739DF82B
:107010007F6008931294002E00F08980089B013352
:10702000089384E0002A41F0AE800F9AB90652F826
:10703000043B0F9200F11285FA0600F109867F06E3
:1070400040F10686BDF828201A80A5E69BF800309E
:107050006C2B03BF9BF8013047F020070BF1010BAD
:1070600047F01007CBE647F040079BF80030C6E634
:10707000002A41F06A80BC0640F10A820F9D073564
:1070800025F00703D3E9004503F108020F92002C15
:1070900075F10003C0F2AF84099B9DF87F60013356
:1070A00000F0B48427F08002079254EA05024FF002
:1070B00001033FF440AF012B00F06283022B00F08C
:1070C0008283414600E01146E20842EA4572E80840
:1070D00004F0070305461446303354EA050001F86E
:1070E000013C01F1FF32EED107981192C00700F187
:1070F0005984A8EB02030E93099B0E9A9342B8BFE2
:10710000134608930023129385E70F9900230A681A
:107110008DF87F301E468DF8A82001230A1DCDE989
:107120000773CDE90E322AAB099612961193079B8D
:1071300013F0020702D0089B02330893079B299C97
:1071400013F0840310933FD10B9B089A9D1A002DD6
:107150003ADD102D289B29DD52462146AA461026ED
:10716000DDE90C5406E0AAF1100ABAF1100F02F1A1
:10717000080218DD0133BB481031072BCDE9283157
:10718000C2E90006EFDD27AA2946204601F0DAFA17
:1071900000287FF4A6AEAAF1100ABAF1100FDDE9BB
:1071A00028314246E6DC55460C4692460133AD4A4C
:1071B0002C44072BCDE92834CAE9002500F34C857F
:1071C0009DF87F600AF1080A76B1289B01330134EB
:1071D0000DF17F010122072BCDE92834CAE9001205
:1071E00000F3DB820AF1080A6FB1289B01330234F5
:1071F00020A90222072BCDE92834CAE9001200F3A6
:10720000D7820AF1080A109B802B00F0E781099BC6
:107210000E9A9D1A002D31DD102D289A924F22DDF5
:10722000534621461026DDE90CA404E0103D102D44
:1072300003F1080315DD01321031072ACDE92821B9
:10724000C3E90076F2DD27AA5146204601F07AFA1A
:1072500000287FF446AE103D102DDDE9282143467D
:10726000E9DC9A460C4601322C44072ACDE9282451
:10727000CAE9007500F3BC820AF1080A079BDF0522
:1072800000F15081289B119ACAF800200E9ACAF882
:10729000042001331444072B2994289300F30E8211
:1072A0000AF1080A079B5A0731D50B9B089A9D1AC9
:1072B000002D2CDD102D289B1FDD1026DDE90C97FD
:1072C00004E0103D102D0AF1080A16DD0133654A6D
:1072D0001034072BCDE92834CAE90026F1DD27AAAE
:1072E0004946384601F02EFA00287FF4FAAD103DE9
:1072F000102DDDE92834C246E8DC0133594A2C441C
:10730000072BCDE92834CAE9002500F35E83DDE9C7
:107310000A3208998A42ACBF9B185B180A93002C6A
:1073200040F0958100232893C24635E5002A40F0BD
:107330001A874E4B1693B9063DD50F9D073525F09C
:107340000703D3E9004503F108020F92FE0740F15D
:10735000D18054EA050300F0CD8030238DF88030D1
:107360008DF8819047F002070223D6E59BF80030A4
:1073700001222B2143E50F989BF8003004680B9401
:10738000002C00F10400C0F20D840F9037E547F0A7
:1073900001079BF8003032E59BF8003000297FF4AC
:1073A0002EAD012220212AE5002A40F0F086304B44
:1073B0001693B906C1D40F9BFA0653F8044B0F93EA
:1073C00000F111837B0640F10E83A4B20025BDE7D6
:1073D00047F008079BF8003011E5002A40F0C78607
:1073E0000F9D073525F0070595ED007B52EC171B27
:1073F00022F000431B938DED1A7A05F10804DDE9B4
:107400001A014FF0FF321B4B0F948DED147B01F0EE
:1074100003FF002840F031834FF0FF32154BDDE9C8
:107420001A0101F0DBFE002840F027830022002330
:10743000DDE9140101F0C8FE002840F02A859DF81E
:107440007F600D4A0D4B0321002027F08004B9F125
:10745000470FD8BF1A46CDE90810079411920E9134
:107460001290D8E5B4A90008C4A9000854A80008DF
:1074700068A80008FFFFEF7F48A8000844A800089C
:10748000002A40F0788647F01007BC063FF5F6ADBD
:107490000F9BF80653F8044B0F9300F1A682790670
:1074A00040F1A38224B2E517F1E59BF80090B9F111
:1074B0002A0F0BF1010000F02286A9F13003092BFD
:1074C000834600F20C8500201BF8019B00EB800036
:1074D00003EB4000A9F13003092BF5D9099091E4A1
:1074E0009BF8003047F0040789E447F080079BF8D9
:1074F000003084E4022310E5002A40F04086B9F110
:10750000000F3FF4E7AC002301221E468DF87F30C8
:10751000099312932AAB08928DF8A89007970E92C0
:10752000119304E6B9F1650F40F3D38000220023E4
:10753000DDE9140101F03EFE002800F06981289B7E
:10754000B14ACAF80020013301340122072BCDE9EA
:107550002834CAF8042000F3D1830AF1080A219BD9
:10756000139A299C934280F22B82289B189ACAF87E
:107570000020179ACAF8042001331444072BCDE9E0
:10758000283400F334830AF1080A139B5D1E002D92
:107590007FF788AE102D289A9C4F40F388832346AE
:1075A0001026DDE90C4905E00AF1080A103D102D0E
:1075B00040F37C8301321033072ACDE92823CAE93E
:1075C0000076F1DD27AA2146484601F0BBF80028E5
:1075D0007FF487ACDDE92823C246E7E70B9B089AD6
:1075E0009D1A002D7FF713AE102D289A874F22DDAC
:1075F000534621461026DDE90CA404E0103D102D71
:1076000003F1080315DD01321031072ACDE92821E5
:10761000C3E90076F2DD27AA5146204601F092F830
:1076200000287FF45EAC103D102DDDE92821434693
:10763000E9DC9A460C4601322C44072ACDE928247D
:10764000CAE9007500F33D830AF1080ADFE527AABD
:10765000DDE90C1001F076F800283FF463AE40E459
:1076600027AADDE90C1001F06DF800287FF439AC91
:10767000219B299CC2461BB9139A002A00F07883EB
:10768000289A1899CAF800101799CAF804100132FC
:107690000C44072A2994289200F358840AF1080A16
:1076A000002BC0F29184139B119901321C44072ACC
:1076B000CDE92824CAE900137FF7F2AD27AADDE956
:1076C0000C1001F03FF800287FF40BAC299CC24657
:1076D000E8E5139A289B012A04F1010403F101054E
:1076E0000AF1080640F34A810123119ACAF80020E2
:1076F000072DCDE92854CAF8043000F3BB82179B4C
:10770000189A01351C44072DCDE92854C6E90023F9
:1077100000F3BC8208366B1C1F46B946139F0E93BC
:10772000013F00220023DDE91401099706F1080A50
:1077300001F040FD002840F0E180119B77600133AB
:107740003C44B9F1070F33602994CDF8A09000F3C1
:107750003E8206F1100305F1020956469A46199A2F
:107760007260144423ABB9F1070F2994CDF8A090AF
:1077700033607FF797ADA1E7012B07977FF49EACAD
:10778000002D08BF0A2C80F0478144AB303403F849
:10779000414D119301230E93AEE427AADDE90C10AD
:1077A00000F0D0FF00287FF49CAB299CC2461BE56B
:1077B00027AADDE90C1000F0C5FF00287FF491AB8B
:1077C000299CC2461FE5169F4246230904F00F007C
:1077D00043EA057329091C460D463B5C02F8013D4E
:1077E00054EA0503F1D1A8EB020311920E9383E44E
:1077F00027AADDE90C1000F0A5FF00287FF471AB8B
:10780000299CC2463AE500BF84A80008C4A9000824
:10781000219B002B40F36182DDE912329342A8BF25
:107820001346002B1D460EDD289B119ACAF8002036
:1078300001332C44072B2994CAF80450289300F3F1
:107840001D830AF1080A129B002DA8BF5B1B002BA9
:107850001D4600F38381219B139A9342C0F2E78176
:10786000079AD00700F1E381139A1298D31A151AD8
:107870009D42A8BF1D46002D0FDD289A1199CAF818
:107880000450013201442C44072ACAF80010CDE903
:10789000282400F328830AF1080A002DACBF5D1BE1
:1078A0001D46002D7FF7FEAC102D289ABF4F40F3E8
:1078B000FE8123461026DDE90C4905E00AF1080A9D
:1078C000103D102D40F3F28101321033072ACDE92B
:1078D0002823CAE90076F1DD27AA2146484600F0B0
:1078E00031FF00287FF4FDAADDE92823C246E7E73F
:1078F000099B0E93CDF84480FFF7FEBB099A002A3E
:107900007FF72DAF102AA94F40F3F48333469246F8
:107910004FF0100922460E9DDDE90C6407E00833A4
:10792000AAF1100ABAF1100F40F3F28101351032BA
:10793000072DCDE92852C3E90079F0DD27AA3146A9
:10794000204600F0FFFE00287FF4CBAADDE9285294
:107950004346E5E70F9BFD0653F8044B0F9376D59E
:1079600000250123FFF7D9BA0F9A52F8044B0F9262
:1079700017F0100279D00025FFF7CFBA079AD10788
:107980003FF5B2AE01221199CAF80010072DCDE9DA
:107990002854CAF8042000F31A8103F102090AF1FD
:1079A000100ADCE6302B00F03C81119A02393023BA
:1079B00002F8013CA8EB01030E931191FFF79CBB69
:1079C000079BDE073FF5D1AD6CE427AADDE90C107B
:1079D00000F0B8FE00287FF484AA299C97E4CDF833
:1079E0004480FFF789BB0025B0E4E517002C75F152
:1079F0000003BFF651AB099B64424FF02D0665EBC7
:107A0000450501338DF87F607FF44CAB002D08BF36
:107A10000A2C0797FFF4B9AE4746204629460A22AA
:107A2000002301F037FC303207F8012D20462946AB
:107A300000230A2201F02EFC04460D4654EA0503F9
:107A4000EBD1A8EB070311970E93FFF755BB780610
:107A500048BFA4B200250123FFF75FBA0A9A104677
:107A6000D117C3E90001FFF797B917F040031CBF16
:107A70001346A4B20025FFF750BADDE9140102460F
:107A80000B4601F0C9FB002840F00D83099B5A1CEE
:107A900029F0200600F04C82472E00F06E81159BE5
:107AA00047F48072002B0792C0F210829DED147B88
:107AB0008DED1C7B00231093B9F1660F00F0268238
:107AC000B9F1460F00F06482452E00F05B8125A8D5
:107AD00022A921AA0223099C0292CDE90310009356
:107AE0000194DDE91C230D98FDF77EFEB9F1670FC7
:107AF000119040F03683FB0740F16B81119B099A8E
:107B00009C1800220023DDE91C0101F053FB002832
:107B100000F0D0812346119A9B1A1393472E219B84
:107B2000129300F05F81B9F1660F40F06381129B00
:107B3000002B099B40F3D782002B40F0C082FD0749
:107B400000F1BD82129B08930E93109B002B40F016
:107B50007C8109939DF87F60FFF75DBA102B289A0E
:107B6000124F40F3EF8023461026DDE90C4905E073
:107B70000AF1080A103D102D40F3E3800132103362
:107B8000072ACDE92823CAE90076F1DD27AA214694
:107B9000484600F0D7FD00287FF4A3A9DDE928239B
:107BA000C246E7E764420B940F909BE4C4A9000827
:107BB00040210D9801F0EEFC0C9B18601861002824
:107BC00000F0C7820C9A40235361FFF7D4B827AA6C
:107BD000DDE90C1000F0B6FD00287FF482A9DDE994
:107BE00028340DF1D80A03F101094646B7E527AA62
:107BF000DDE90C1000F0A6FD00287FF472A9299C95
:107C0000C246C2E4099B119E0996062B28BF062393
:107C100008930E93BB4B0F95079712961193FFF79E
:107C2000FAB9119BA8EB03030E93FFF765BA289AE4
:107C30001899CAF800101799CAF8041001320C44B8
:107C4000072A2994289200F329810AF1080A0BE6F1
:107C50000A9A1A60FFF7A0B827AADDE90C1000F015
:107C600071FD00287FF43DA99DF87F60299CC246E4
:107C7000FFF7AABA27AADDE90C1000F063FD00287F
:107C80007FF42FA9DDE92854464638E527AADDE927
:107C90000C1000F057FD00287FF423A9DDE92854DB
:107CA000464638E5012B7FF409AA6EE51C460132F1
:107CB0002C44072ACDE92824CAE900757FF7F0AAE9
:107CC000FCE427AADDE90C1000F03CFD00287FF45D
:107CD00008A9299CC246FFF79ABA289A8A49CAF885
:107CE0000010013201340121072ACDE92824CAF805
:107CF00004103FF7B5AC0AF1080ABCE427AADDE995
:107D00000C1000F01FFD00287FF4EBA8C24626E40B
:107D100014461E46CDF824A005F1010903F108021E
:107D2000099BCDF8A0901C44B9F1070F2994C6E92E
:107D300000733FF74CAF09F1010902F1080A16463A
:107D40000DE51C4601322C44072ACDE92824CAE956
:107D5000007500F32E810AF1080A7CE51198099458
:107D6000FCF78EF80797CDE90E050346FFF74DB9EE
:107D7000079AD5077FF596AA82E4002B08BF012356
:107D800009938CE6099B25A85D1C22A921AA022340
:107D9000CDE90310029200930195DDE91C230D98B3
:107DA000FDF722FD1190B9F1470F40F0C881FB07A4
:107DB00040F1BE81119BB9F1460F03EB05047FF43E
:107DC000A0AE119B1B78302B00F05F81219D2C44CD
:107DD00097E6219A259B1292119A472EA3EB020354
:107DE000139307D1129BDA1C02DB099A9A4233DA09
:107DF000A9F10209129B8DF88C90013B002B219375
:107E0000BDBF129BC3F101032D222B22092B8DF83C
:107E10008D2000F30681303330228DF88F308DF8BD
:107E20008E2024AB23AA9B1A139A1993012A134478
:107E30000E9340F34E810E9B179A13440E9323EA40
:107E4000E3730893002312937FE62D2600238DF819
:107E50007F600993FFF7E2B8DDE912318B42C0F28F
:107E60008380F80740F10A81129B179A13440E93FE
:107E700023EAE37308934FF0670966E627AADDE972
:107E80000C1000F05FFC00287FF42BA8299CC24650
:107E9000D9E42D268DF87F60FFF7D3BA27AADDE954
:107EA0000C1000F04FFC00287FF41BA8219B299C9C
:107EB000C246D9E4259BA342BFF42DAE30215A1C03
:107EC00025921970259B9C42F9D824E6DDE914120D
:107ED00002F100431D932D231C911093ECE5002328
:107EE0000993FEF78FBF27AADDE90C1000F02AFCEA
:107EF00000287EF4F6AF219B139A299CD31AC24620
:107F0000CBE400BF7CA8000884A80008099D019567
:107F100025A822A921AA0323CDE9031002920093E8
:107F20000D98DDE91C23FDF75FFC1190441948E72B
:107F300006230993B3E5099B08930E9309900F95C7
:107F4000079712909DF87F60FFF765B827AADDE9D3
:107F50000C1000F0F7FB00287EF4C3AF219BDDE995
:107F60002824C246FFF79CBB179A139B1344129A0E
:107F70000E93002A06DC129B0E9AC3F101031A44E9
:107F800013460E9223EAE37308934FF06709DCE58A
:107F900025A822A921AA0323099D0292CDE9031055
:107FA00000930195DDE91C230D98FDF71DFC119050
:107FB00000E727AADDE90C1000F0C4FB00287EF4DE
:107FC00090AF299CC24646E45D421033724F1CDAE2
:107FD0001026DDF8349004E00AF1080A103D102D57
:107FE00013DD01321034072ACDE92824CAE90076CE
:107FF000F2DD27AA0C99484600F0A4FB00287EF485
:1080000070AFDDE92824C246E8E701322C44072A94
:10801000CDE92824CAE900757DDC0AF1080AFFF7DA
:1080200042BB0DF19B0420465C4D00E01046A5FBD1
:108030000312D20802EB8201A3EB410303F13001EA
:108040001346092B00F8011C00F1FF32EEDC30333F
:108050000238D9B2844202F8011C73D90DF18E00A6
:10806000134601E013F8011B00F8011B9C42F9D1F3
:1080700027AB9B1A0DF18E021344D3E623EAE37279
:1080800008920E934FF067095FE500220023DDE9B7
:108090001C0101F08FF800287FF498AEC5F10105AE
:1080A00021952C442DE5159B3D4A002BB6BF2D266E
:1080B0009DF87F608DF87F603A4BFFF7C4B9129B43
:1080C000179A1344099A1A4422EAE2730E9208930B
:1080D0003BE517F0010312937FF4ADAE0E9B23EA4C
:1080E000E373089331E53BB9FC0705D401230893FA
:1080F0000E932AE5524613E6179B0133E2E70F9DE4
:108100009BF801302C68834644EAE474281D0994E6
:108110000F90FEF774BE27AADDE90C1000F012FBE9
:1081200000287EF4DEAEDDE92824C246FFF7BBBAA4
:10813000219A259B1292119A9B1A139352E6119B36
:108140005C19DEE40DF18E036CE68DF87F10FEF70E
:1081500092BF0D9A0C2313604FF0FF330A93FEF782
:10816000C9BE099D1FE68DF87F10FFF7E2B88DF8B4
:108170007F10FFF735B98DF87F10FFF784B98DF8C0
:108180007F10FFF7BCB98DF87F10FEF74EBF8DF85A
:108190007F10FFF70CB900BFC4A90008CDCCCCCC30
:1081A00050A800084CA800082DE9F84F4B6E9C041D
:1081B00092462DD59368126843B30E46074602F1E6
:1081C000080959E9025B5FEA9B0815D0043D0024C9
:1081D00001E0A0450ED0324655F8041F384600F0A5
:1081E00079F8431C04F10104F3D10023CAE90133F7
:1081F000BDE8F88FDAF808302BF0030BA3EB0B0384
:10820000CAF8083009F10809002BDAD10020ECE7A0
:1082100000F092F80023CAE90133BDE8F88F00BFEF
:1082200093680BB1FFF7C0BF10B4184653605DF8F8
:10823000044B70472DE9F04782B0814688461446CA
:1082400000F0F8F9012803D108F1FF33FE2B33D9F0
:10825000424604F15C0301A9484600F045FB421C7C
:1082600006462FD020B39DF804C000250DF1040A66
:1082700009E023685A1C226083F800C00135B5422A
:1082800016D215F80AC0A368013B002BA360F0DAF0
:10829000A769BB4261462246484602DBBCF10A0F91
:1082A000E7D100F0C9FA431CE8D102B0BDE8F0877D
:1082B000404602B0BDE8F0875FFA88FC06468DF8BC
:1082C00004C0D2E7A38943F04003A38102B0BDE814
:1082D000F08700BF30B50546506EB2F90C30C007CC
:1082E000144683B09AB201D490051CD5900406D4EC
:1082F000626E43F4005342F40052A3816266284642
:108300002246FFF797FF636EDA07054602D4A3897A
:108310009B0502D5284603B030BDA06DFBF798FB46
:10832000284603B030BDA06D0191FBF78FFBB4F977
:108330000C3001999AB2D9E79368002B00F0E480E1
:108340002DE9F04FB1F90C309BB20C46190783B000
:108350008246904635D522699AB313F00202D8F8C6
:1083600000603DD00027D4F824B0D4F81CC0DFF85A
:10837000C0923D464D452B463A4628BF4B46614686
:108380005046D5B1D847002840F3C680D8F8083009
:108390001B1A07442D1AC8F80830002B00F0B080D3
:1083A000D4F81CC0D4F824B04D452B463A4628BF1B
:1083B0004B4661465046002DE4D1D6E9007508369B
:1083C000D8E721465046FDF705F9002840F02A81FC
:1083D000B4F90C30D8F800609BB213F00202C1D19E
:1083E00013F001095DD1A76820684D46002D54D0D7
:1083F0009A0540F19B80AF42BB4600F2D88013F44F
:10840000906F2FD0D4E9041707EB4707A0EB010BBF
:1084100007EBD777681C7F105844B8423A4684BFB0
:1084200007463A465B0540F1D3801146504601F0BD
:10843000B1F8002800F0F0805A4621690190FBF75E
:10844000DFFBA289019B22F4906242F08002A281AC
:10845000A7EB0B0203EB0B00676123612060A260B6
:108460002F46AB465A46494600F008F9A2682368F1
:10847000D21B5B442F46A26023600025D8F8083049
:10848000DB1BB944C8F80830002B39D0B4F90C30E4
:10849000A76820689BB2002DAAD1D6E900950836BE
:1084A000A4E733469146104617464E469B46002F9A
:1084B0006BD0002871D0D4E904122068B9454B462E
:1084C00028BF3B46884203D9A5681544AB4271DCFE
:1084D0009A4200F393801346656AE169324650463A
:1084E000A847051E18DDB9EB05090FD00120D8F803
:1084F00008305B1B2E447F1BC8F80830002BD6D1F8
:10850000002003B0BDE8F08F0020704721465046A0
:10851000FBF77CF90028EAD0B4F90C3043F04003B3
:108520004FF0FF30A38103B0BDE8F08F2369834291
:1085300015D36169A94212D83C4B676A9D4294BF2A
:108540002B466FF000434A4693FBF1F3504601FB84
:1085500003F3E169B847071EDEDDED1B8EE7AF428E
:1085600028BF2F463A46494600F088F8A36822689B
:10857000DB1B3A44A3602260002BEED1214650461B
:10858000FBF744F90028E8D0C6E70BF1080353E9EC
:1085900002679B460833002FF9D03A460A2130463D
:1085A000FBF7DEFA38B30130A0EB060983E72F466C
:1085B000AB4657E731462A4600F060F823682B4463
:1085C000236021465046FBF721F900288BD0A3E712
:1085D000504600F0E1FF034600287FF439AF2169DF
:1085E000504600F0DBFFB4F90C300C2223F080037E
:1085F000CAF8002092E707F101095CE71A46314604
:10860000019300F03BF8019BA1682268C91A1A4443
:10861000A16022601D4666E70C23CAF80030B4F959
:108620000C307BE74FF0FF306BE700BFFEFFFF7FB2
:1086300000FCFF7F044B054A1B685B6B002B08BFE7
:10864000134693F828017047DC0200200807002039
:1086500082B049B15AB16BB113780B601278101C1B
:1086600018BF012002B0704701A9002AF3D11046BB
:1086700002B070476FF00100F4E700BF8842F0B429
:108680000DD98B1883420AD9841832B1224613F8C7
:10869000014D02F8014D9942F9D1F0BC70470F2A03
:1086A00049D940EA01039B0747D1A2F110031B09F6
:1086B00001F1200707EB031701F1100400F1100589
:1086C00054F8106C45F8106C54F80C6C45F80C6CB0
:1086D00054F8086C45F8086C54F8046C45F8046CC0
:1086E0001034BC4205F11005EAD1013302F00F0548
:1086F0001B01032D1944034421D91F1F0E462C468C
:10870000043C56F804CB47F804CF032CF8D82C1FB0
:1087100024F0030404342344214402F00302002A19
:10872000BBD0013B0A4411F8014B03F8014F9142C1
:10873000F9D1F0BC70470346F1E70346F1E72A465A
:10874000EDE700BF2DE9F04F936883B09046002B12
:108750006CD017688D6882460C460868083742E07E
:10876000A38913F4906F2DD0D4E9041505EB4505CA
:10877000A0EB010B05EBD575701C6D105844A84299
:108780002A4684BF05462A465B0536D51146504623
:1087900000F000FF00283AD05A4621690190FBF70B
:1087A0002FFAA289019B22F4906242F08002A281FA
:1087B000A5EB0B0203EB0B00656123612060A26057
:1087C0003546B3465A464946FFF758FFD8F80830B1
:1087D000A2682068551B58449E1BA5602060C8F8FD
:1087E00008601EB3083757E90296AB46002EF9D051
:1087F000AE42B5D23546B346E4E7504600F0CCFE73
:1088000003460028D4D12169504600F0C7FE0C234E
:10881000CAF80030A389002243F040034FF0FF3034
:10882000A381C8E9012203B0BDE8F08F0020C8F899
:10883000040003B0BDE8F08FF8B50D4614460646B7
:1088400010B1836B002B43D0B4F90C20A369A36053
:1088500091B208071BD52369CBB1EDB289042F462D
:1088600022D522686169D31A994229DD0133A168B2
:10887000501C0139A1602060157062699A422AD0AB
:10888000A389DB0701D50A2D25D03846F8BD21463E
:108890003046FCF79FFE20BBB4F90C20236991B24F
:1088A000EDB289042F46DCD4616E42F4005221F40B
:1088B0000051A281226861666169D31A9942D5DCB0
:1088C00021463046FAF7A2FF58B922680123CEE7C5
:1088D000FBF70AF8B8E721463046FAF797FF002879
:1088E000D3D04FF0FF37D0E7F0B5114C246885B0F6
:1088F0000646646B1F4651B10E4D002C08BF2C4636
:10890000D4F8E040A047431C0CD005B0F0BD094AA4
:10891000002C08BF14460A46D4F8E04001A9A0473D
:10892000431CF2D100228A233A60336005B0F0BDC7
:10893000DC0200200807002021B1FF2A04D80A70B9
:1089400001207047084670478A2303604FF0FF30CC
:10895000704700BF9140031C90409C46203A9340D2
:10896000194352426346D3401943704781F0004196
:1089700002E000BF83F0004330B54FEA41044FEA04
:10898000430594EA050F08BF90EA020F1FBF54EA9F
:10899000000C55EA020C7FEA645C7FEA655C00F03B
:1089A000E2804FEA5454D4EB5555B8BF6D420CDD0C
:1089B0002C4480EA020281EA030382EA000083EA8F
:1089C000010180EA020281EA0303362D88BF30BD2F
:1089D00011F0004F4FEA01314FF4801C4CEA113185
:1089E00002D0404261EB410113F0004F4FEA0333E4
:1089F0004CEA133302D0524263EB430394EA050F6F
:108A000000F0A780A4F10104D5F1200E0DDB02FADD
:108A10000EFC22FA05F2801841F1000103FA0EF271
:108A2000801843FA05F359410EE0A5F120050EF137
:108A3000200E012A03FA0EFC28BF4CF0020C43FA68
:108A400005F3C01851EBE37101F0004507D54FF075
:108A5000000EDCF1000C7EEB00006EEB0101B1F5C5
:108A6000801F1BD3B1F5001F0CD349085FEA30000B
:108A70004FEA3C0C04F101044FEA445212F5800F16
:108A800080F09A80BCF1004F08BF5FEA500C50F1B3
:108A9000000041EB045141EA050130BD5FEA4C0C96
:108AA000404141EB010111F4801FA4F10104E9D11F
:108AB00091F0000F04BF01460020B1FA81F308BF16
:108AC0002033A3F10B03B3F120020CDA0C3208DDE2
:108AD00002F1140CC2F10C0201FA0CF021FA02F1BD
:108AE0000CE002F11402D8BFC2F1200C01FA02F12D
:108AF00020FA0CFCDCBF41EA0C019040E41AA2BF52
:108B000001EB0451294330BD6FEA04041F3C1CDA19
:108B10000C340EDC04F11404C4F1200220FA04F039
:108B200001FA02F340EA030021FA04F345EA0301E3
:108B300030BDC4F10C04C4F1200220FA02F001FAA5
:108B400004F340EA0300294630BD21FA04F0294627
:108B500030BD94F0000F83F4801306BF81F48011C0
:108B60000134013D4EE77FEA645C18BF7FEA655C33
:108B700029D094EA050F08BF90EA020F05D054EA05
:108B8000000C04BF1946104630BD91EA030F1EBF0A
:108B90000021002030BD5FEA545C05D1400049410E
:108BA00028BF41F0004130BD14F580043CBF01F501
:108BB000801130BD01F0004545F0FE4141F47001E7
:108BC0004FF0000030BD7FEA645C1ABF19461046C2
:108BD0007FEA655C1CBF0B46024650EA013406BFC3
:108BE00052EA033591EA030F41F4002130BD00BF82
:108BF00090F0000F04BF0021704730B54FF480643F
:108C000004F132044FF000054FF0000150E700BFBF
:108C100090F0000F04BF0021704730B54FF480641E
:108C200004F1320410F0004548BF40424FF000010B
:108C30003EE700BF42004FEAE2014FEA31014FEA4E
:108C400002701FBF12F07F4393F07F4F81F060519D
:108C5000704732F07F4208BF704793F07F4F04BFE8
:108C600041F40021704730B54FF4607401F00045C5
:108C700021F000411CE700BF50EA010208BF704725
:108C800030B54FF000050AE050EA010208BF704716
:108C900030B511F0004502D5404261EB41014FF47F
:108CA000806404F132045FEA915C3FF4D8AE4FF087
:108CB00003025FEADC0C18BF03325FEADC0C18BF6A
:108CC000033202EBDC02C2F1200300FA03FC20FABB
:108CD00002F001FA03FE40EA0E0021FA02F1144408
:108CE000BDE600BF70B54FF0FF0C4CF4E06C1CEA21
:108CF00011541DBF1CEA135594EA0C0F95EA0C0F92
:108D000000F0DEF82C4481EA030621EA4C5123EA04
:108D10004C5350EA013518BF52EA033541F4801133
:108D200043F4801338D0A0FB02CE4FF00005E1FBE6
:108D300002E506F00042E0FB03E54FF00006E1FB30
:108D400003569CF0000F18BF4EF0010EA4F1FF0473
:108D5000B6F5007F64F5407404D25FEA4E0E6D41B3
:108D600046EB060642EAC62141EA55514FEAC520C4
:108D700040EA5E504FEACE2EB4F1FD0C88BFBCF540
:108D8000E06F1ED8BEF1004F08BF5FEA500E50F1F1
:108D9000000041EB045170BD06F0004646EA0101B7
:108DA00040EA020081EA0301B4EB5C04C2BFD4EBE9
:108DB0000C0541EA045170BD41F480114FF0000EE2
:108DC000013C00F3AB8014F1360FDEBF002001F050
:108DD000004170BDC4F10004203C35DA0C341BDCCA
:108DE00004F11404C4F1200500FA05F320FA04F09C
:108DF00001FA05F240EA020001F0004221F00041D0
:108E000010EBD37021FA04F642EB06015EEA430E42
:108E100008BF20EAD37070BDC4F10C04C4F1200572
:108E200000FA04F320FA05F001FA04F240EA020025
:108E300001F0004110EBD37041F100015EEA430EF6
:108E400008BF20EAD37070BDC4F1200500FA05F216
:108E50004EEA020E20FA04F301FA05F243EA020395
:108E600021FA04F001F0004121FA04F220EA0200A4
:108E700000EBD3705EEA430E08BF20EAD37070BDEA
:108E800094F0000F0FD101F00046400041EB0101CA
:108E900011F4801F08BF013CF7D041EA060195F0AC
:108EA000000F18BF704703F00046520043EB030366
:108EB00013F4801F08BF013DF7D043EA0603704753
:108EC00094EA0C0F0CEA135518BF95EA0C0F0CD05E
:108ED00050EA410618BF52EA4306D1D181EA0301A4
:108EE00001F000414FF0000070BD50EA410606BF9E
:108EF0001046194652EA430619D094EA0C0F02D1E3
:108F000050EA013613D195EA0C0F05D152EA033627
:108F10001CBF104619460AD181EA030101F0004145
:108F200041F0FE4141F470014FF0000070BD41F08E
:108F3000FE4141F4780170BD70B54FF0FF0C4CF468
:108F4000E06C1CEA11541DBF1CEA135594EA0C0F87
:108F500095EA0C0F00F0A7F8A4EB050481EA030ED4
:108F600052EA03354FEA013100F088804FEA0333BB
:108F70004FF0805545EA131343EA12634FEA022289
:108F800045EA111545EA10654FEA00260EF000414A
:108F90009D4208BF964244F1FD0404F5407402D29C
:108FA0005B084FEA3202B61A65EB03055B084FEA2D
:108FB00032024FF480104FF4002CB6EB020E75EB2A
:108FC000030E22BFB61A754640EA0C005B084FEA52
:108FD0003202B6EB020E75EB030E22BFB61A7546CF
:108FE00040EA5C005B084FEA3202B6EB020E75EB1A
:108FF000030E22BFB61A754640EA9C005B084FEA92
:109000003202B6EB020E75EB030E22BFB61A75469E
:1090100040EADC0055EA060E18D04FEA051545EA8D
:1090200016754FEA06164FEAC30343EA52734FEA36
:10903000C2025FEA1C1CC0D111F4801F0BD141EAAF
:1090400000014FF000004FF0004CB6E711F4801F14
:1090500004BF01430020B4F1FD0C88BFBCF5E06FF4
:109060003FF6AFAEB5EB030C04BFB6EB020C5FEA04
:10907000500C50F1000041EB045170BD0EF0004E59
:109080004EEA113114EB5C04C2BFD4EB0C0541EA8B
:10909000045170BD41F480114FF0000E013C90E688
:1090A00045EA060E8DE60CEA135594EA0C0F08BF4C
:1090B00095EA0C0F3FF43BAF94EA0C0F0AD150EA4B
:1090C00001347FF434AF95EA0C0F7FF425AF1046DE
:1090D00019462CE795EA0C0F06D152EA03353FF406
:1090E000FDAE1046194622E750EA410618BF52EA83
:1090F00043067FF4C5AE50EA41047FF40DAF52EA57
:1091000043057FF4EBAE12E74FF0FF3C06E000BFF3
:109110004FF0010C02E000BF4FF0010C4DF804CD00
:109120004FEA410C7FEA6C5C4FEA430C18BF7FEAC0
:109130006C5C1BD001B050EA410C0CBF52EA430CEE
:1091400091EA030F02BF90EA020F0020704710F16E
:10915000000F91EA030F58BF994208BF90422CBFFD
:10916000D8176FEAE37040F0010070474FEA410CF6
:109170007FEA6C5C02D150EA013C07D14FEA430C14
:109180007FEA6C5CD6D152EA033CD3D05DF8040B85
:10919000704700BF8446104662468C4619466346B7
:1091A00000E000BF01B5FFF7B7FF002848BF10F18E
:1091B000000F01BD4DF808EDFFF7F4FF0CBF0120D3
:1091C00000205DF808FB00BF4DF808EDFFF7EAFF4F
:1091D00034BF012000205DF808FB00BF4DF808ED0A
:1091E000FFF7E0FF94BF012000205DF808FB00BFFF
:1091F0004DF808EDFFF7CEFF94BF012000205DF889
:1092000008FB00BF4DF808EDFFF7C4FF34BF012095
:1092100000205DF808FB00BF4FEA410C7FEA6C5C60
:1092200002D150EA013C0AD14FEA430C7FEA6C5C60
:1092300002D152EA033C02D14FF0000070474FF0D8
:10924000010070474FEA410212F5001215D211D504
:109250006FF47873B3EB625212D94FEAC12343F033
:10926000004343EA505311F0004F23FA02F018BFB5
:10927000404270474FF00000704750EA013005D17E
:1092800011F0004008BF6FF0004070474FF0000041
:10929000704700BF53B94AB9002908BF00281CBF56
:1092A0004FF0FF314FF0FF3000F072B9ADF1080C14
:1092B0006DE904CE00F006F8DDF804E0DDE90223F4
:1092C00004B070472DE9F047089E04468846002BFD
:1092D0004BD18A42154667D9B2FA82F24AB1C2F13D
:1092E000200701FA02F320FA07F7954047EA03083E
:1092F00094404FEA154E230CB8FBFEF71FFA85FC8D
:109300000EFB178843EA084307FB0CF1994209D981
:10931000EB1807F1FF3080F01B81994240F2188171
:10932000023F2B445B1AA4B2B3FBFEF00EFB1033DA
:1093300044EA034400FB0CFCA44509D92C1900F1B4
:10934000FF3380F00781A44540F2048102382C44A9
:1093500040EA0740A4EB0C0400271EB1D4400023D0
:10936000C6E900433946BDE8F0878B4209D9002E93
:1093700000F0EB800027C6E9000138463946BDE819
:10938000F087B3FA83F7002F47D18B4202D3824292
:1093900000F2FA80841A61EB030301209846002E44
:1093A000E0D0C6E90048DDE702B9FFDEB2FA82F29A
:1093B000002A40F08F80491B4FEA154E1FFA85F8AE
:1093C0000127B1FBFEFC230C0EFB1C1143EA0143F9
:1093D00008FB0CF1994207D9EB180CF1FF3002D2CF
:1093E000994200F2CD808446591AA3B2B1FBFEF037
:1093F0000EFB101443EA044408FB00F8A04507D90B
:109400002C1900F1FF3302D2A04500F2B6801846B5
:10941000A4EB080440EA0C409FE7C7F1200CBB40D6
:1094200022FA0CFE4EEA030E01FA07F420FA0CF5BC
:1094300021FA0CF34FEA1E482543B3FBF8F92C0C34
:1094400008FB19331FFA8EFA44EA034309FB0AF4B6
:109450009C4202FA07F200FA07F10BD91EEB030354
:1094600009F1FF3080F087809C4240F28480A9F1AE
:10947000020973441B1BADB2B3FBF8F008FB1033B9
:1094800045EA034400FB0AFAA24508D91EEB04048E
:1094900000F1FF336BD2A24569D90238744440EA27
:1094A0000940A0FB0289A4EB0A044C45C2464B4686
:1094B00054D351D0002E69D0B1EB0A0564EB0304FC
:1094C00004FA0CFCFD40FC404CEA0505C6E90054DA
:1094D000002747E7C2F1200320FA03F7954001FA7D
:1094E00002F021FA03F34FEA154E3843010CB3FBA7
:1094F000FEF71FFA85F80EFB173341EA034107FB1D
:1095000008F38B4204FA02F407D9691807F1FF3C0B
:109510002FD28B422DD9023F2944CB1A81B2B3FB03
:10952000FEF00EFB103341EA034100FB08F38B42CF
:1095300007D9691800F1FF3C17D28B4215D90238C0
:109540002944C91A40EA07473BE73746304609E74E
:109550000746E7E61846FBE64145ABD2B8EB020A00
:1095600069EB0E0201381346A4E76046E9E71846A6
:1095700095E76746D1E781467CE702382C4447E708
:10958000ACF1020C2B442FE7384608E73746E9E6F2
:10959000704700BF00F07EB900F020BC00F086B834
:1095A00000F000B810B502FB01F1FFF7F3FF04462D
:1095B000D8B150F8042C22F00302043A242A1DD812
:1095C000132A14D900231B2AC0E900331BD9242AEB
:1095D000C0E902330ABFC0E9043300F1100200F110
:1095E00018020023C2E900339360204610BD0246F2
:1095F0000023C2E900339360204610BD0021FAF732
:1096000099FB204610BD00F10802F1E7F8B5244FA0
:109610000C460646F7F765FBBB685D68C4F57E61DE
:109620000F3125F00305294421F47F6121F00F015A
:10963000A1F58054B4F5805F07DB0021304600F0CF
:109640007BFDBB682B44984204D03046F7F74DFBB6
:109650000020F8BD6142304600F06EFD01300DD0B3
:10966000104BBA6819682D1B45F001053046091BDF
:1096700055601960F7F739FB0120F8BD002130462D
:1096800000F05AFDBA68831A0F2BDEDD064C05493F
:10969000246843F00103001B53600860D5E700BF56
:1096A00074080020C00D00207C0C0020002953D03D
:1096B000F8B50C460646F7F714FB54F804CC714F86
:1096C0002CF00101A4F108056B18B8685A6898429B
:1096D00022F0030253D01CF0010F5A6003EB02008A
:1096E0003BD154F808CC4068A5EB0C0507F1080EF7
:1096F000AC687445614400F0010075D0D5F80CC029
:10970000C4F80CC0CCF8084060B341F001036B60B2
:109710006950B1F5007F50D34B0A042B70D88B09E8
:1097200003F13904E40003F1380238193B590838D1
:10973000984278D05A6822F003028A4271D99B6815
:109740009842F7D1C368C5E902039D60C560304601
:10975000BDE8F840F7F7C9BA7047406800F001006B
:109760000028D2D19868484C1144A04241F001022F
:1097700062D0DB68C36098606A606950C9E71CF01A
:10978000010F0A4407D154F8083CED1A1A44D5E9F0
:109790000213CB6099603D4B1B6842F0010193427C
:1097A0006960BD6004D83A4B30461968FFF72EFF58
:1097B0003046BDE8F840F7F798BAC90878684A1CFF
:1097C000012389108B40034307EBC20157F8320095
:1097D0007B600839C5E9020147F83250C560304660
:1097E000BDE8F840F7F781BA002845D10A44D3E92B
:1097F000021342F00100CB6099606860AA50D7E77D
:10980000142B08D9542B1ED80B0B03F16F04E40062
:1098100003F16E0289E703F15C04E40003F15B02EB
:1098200083E718468EE793107968012202FA03F362
:109830000B437B60034686E7C7E90455C5E9020090
:109840006A606950B4E7B3F5AA7F06D8CB0B03F181
:109850007804E40003F1770267E740F25452934240
:1098600006D88B0C03F17D04E40003F17C025CE775
:109870004FF47E747E2258E741F001026A6019605D
:1098800096E700BF740800207C080020800C0020B0
:10989000F00D00202DE9F04F01F10B05162D83B0DE
:1098A000064623D8102900F2B980F7F71AFA1025D6
:1098B00018230220C54F3B44A3F108025C68944280
:1098C00000F06681636823F003032344D4E9025166
:1098D0005A68E96042F001028D6030465A60F7F73D
:1098E00004FA0834204603B0BDE8F08F35F00705D0
:1098F00000F19480A94200F29180F7F7F2F9B5F5F2
:10990000FC7FC0F083816B0A00F08F80042B00F293
:109910004681AB0903F1390003F1380CC300AB4FAA
:109920003B44A3F108015C68A14206D10CE0002A87
:1099300080F21D81E468A14206D0636823F003032E
:109940005A1B0F2AF3DD60463C69DFF894C2644578
:1099500071D0636823F003035A1B0F2A00F344817C
:10996000002AC7E904CC80F22681B3F5007F80F09D
:109970006981DB08591C7A6857F83180C4F808807F
:109980004FF0010E9B100EFA03F307EBC10E1343C9
:10999000AEF10802E2607B6047F83140C8F80C4045
:1099A0008210012494409C424BD81C4206D120F0E6
:1099B000030064001C4200F10400FAD007EBC00968
:1099C000CE468046DEF80C309E4507D122E1002AC3
:1099D00080F22981DB689E4500F01C81596821F0E6
:1099E00003014A1B0F2AF2DDD3E9028E5C1945F010
:1099F00001055D6042F00105C8F80CE03046CEF884
:109A00000880C7E90444C4E902CC65605A50019358
:109A1000F7F76BF9019B03F1080463E700240C23BB
:109A20002046336003B0BDE8F08F4FF40073402050
:109A30004FF03F0C73E77B688210012494409C42F6
:109A4000B3D9BC68636823F00309A94503D3A9EB24
:109A500005030F2B7BDC5E4BDFF888A11A68DAF870
:109A60000030013305EB020800F0488108F580580A
:109A700008F10F0828F47F6828F00F0841463046A7
:109A800000F05AFBB0F1FF3F834600F0048104EB85
:109A90000900584500F2FD804E4A136843441360A4
:109AA00000F04D81DAF8001001311BBFABEB000074
:109AB0001B18CAF800B013601BF0070300F03481D4
:109AC000C3F10801C3F580538B440833D844C8F36D
:109AD0000B08A3EB080841463046019200F02CFB2E
:109AE000431C019A00F04681A0EB0B01414441F078
:109AF00001011368C7F808B04344BC42CBF8041016
:109B0000136015D0B9F10F0F40F230816068A9F1F0
:109B10000C0121F0070100F0010004EB010C0843E7
:109B20004FF0050E0F296060CCE901EE00F23A819A
:109B3000294A2A481168BC688B42016888BF1360B3
:109B400062688B4222F0030288BF0360A7E06219BB
:109B500043F0010345F0010565603046BA6053608B
:109B6000F7F7C3F80834204603B0BDE8F08F23446C
:109B7000E1685A68A56842F00102E96030468D60EC
:109B80005A60F7F7B2F80834204603B0BDE8F08F0A
:109B9000DC68A34208BF02303FF4D6AE92E6142B35
:109BA00071D9542B00F2AD802B0B03F16F0003F140
:109BB0006E0CC300B3E6234430465A6842F00102FB
:109BC0005A600834F7F791F88CE600BF740800205B
:109BD000F00D0020C00D0020E80D0020EC0D00204D
:109BE0007C0800207C0C0020611945F0010E42F039
:109BF0000105C4F804E03046C7E90411C1E902CC0C
:109C00004D60E250F7F771F808346BE6E80805F1AB
:109C100008034FE608F1010818F0030F0EF1080ED3
:109C20007FF4D0AE52E019441C464A68DB6854F811
:109C3000085F42F001024A603046EB609D60F7F732
:109C400054F84FE65A0A042A35D9142A6FD802F17B
:109C50005C01C9005B3207EB010E7958AEF1080ECA
:109C60008E4558D04A6822F003029A4202D9896888
:109C70008E45F7D1D1F80CE07B68C4E9021ECEF81E
:109C80000840CC608CE603F15C0003F15B0CC30080
:109C900045E6BC4272D0BC68626822F0030295427D
:109CA000A2EB050302D80F2B3FF751AF3046F7F771
:109CB0001CF8002416E69A0902F13901C90038326D
:109CC000C9E7D9F80090994540F0838010F0030F60
:109CD000A9F1080300F1FF30F3D17B6823EA040304
:109CE0007B6064009C423FF6ACAE1CB9A9E6640000
:109CF00008F104081C42FAD040465FE608F110085B
:109D0000BCE6B3F5AA7F26D8EB0B03F1780003F18C
:109D1000770CC30003E67B6892104FF0010808FA45
:109D200002F213437B60A8E74FF48053CEE6542A37
:109D300029D81A0B02F16F01C9006E328BE7C0F30C
:109D40000B0100297FF4AEAE09EB0802B96842F0BE
:109D500001024A60ECE640F2545293421CD8AB0C2C
:109D600003F17D0003F17C0CC300D8E50123CBF89F
:109D700004309BE701214FF00008BAE6164A136849
:109D8000434413608EE6B2F5AA7F14D8DA0B02F1D1
:109D90007801C90077325EE74FF47E737F204FF081
:109DA0007E0CBCE504F1080130460192FFF7F6FB9A
:109DB000019A1368BCE640F254518A4205D89A0CC5
:109DC00002F17D01C9007C3245E74FF47E717E22AD
:109DD00041E77B6885E700BFC00D00202DE9F04F0B
:109DE000924683B0002900F0A1800D4680460AF11A
:109DF0000B04F6F776FF55F8042C162C22F0030618
:109E0000A5F108073ED810242146A2453FD88E422E
:109E100007EB060974DAC74B9868484500F0AA803A
:109E2000D9F8040020F001034B445B68DB0740F1E4
:109E30008380D20734D551464046FFF7ABFB8246BC
:109E4000E0B155F8043C23F001033B44A0F10802C3
:109E5000934200F0F980321F242A00F20781132A6E
:109E6000296800F2E68003462A4619605168596065
:109E700092689A6029464046FFF790FB4046F6F705
:109E800034FF4FE024F00704002C2146BDDA4FF0E8
:109E9000000A0C235046C8F8003003B0BDE8F08F2C
:109EA00055F8083CA7EB030BDBF8042022F0030273
:109EB000B3188B42BFDBDA46DBF80C105AF8080FF8
:109EC000321F242AC1600BEB0309886000F2C680B0
:109ED000132A296840F2C080CBF808106968CBF8D3
:109EE0000C101B2AA96800F2D8800BF1100208356B
:109EF000116069685160A96891601E465F465546C9
:109F00007B68321B0F2A03F0010322D833437B60A6
:109F1000D9F8043043F00103C9F804304046F6F79D
:109F2000E4FEAA46504603B0BDE8F08F114603B0E8
:109F3000BDE8F04FFFF72EBB20F0030033188B4233
:109F400061DBD9E902121E46CA6007EB0309916082
:109F5000D6E73919234342F001027B604A60D9F801
:109F6000043043F001030831C9F804304046FFF7DC
:109F700015FBD3E7406820F00309B14404F1100059
:109F8000814577DAD2073FF556AF55F8082CA7EB95
:109F9000020BDBF8042022F003029144484587DCE1
:109FA000DA46DBF80C105AF8080F321F242AC16079
:109FB000886000F2A180132A296840F29B80CBF8C8
:109FC00008106968CBF80C101B2AA96800F29B8066
:109FD0000BF110020835116069685160A968916041
:109FE0000BEB0401A9EB040242F0010299604A6004
:109FF000DBF8043003F001031C434046CBF8044077
:10A00000F6F773FE8EE7D3073FF515AF55F8083C1A
:10A01000A7EB030BDBF8042022F0030210448319A2
:10A020008B42FFF645AFD9E90212DA46CA60916069
:10A0300042E701606B6843601B2A3AD805F10802C9
:10A0400000F10803A96810E750F8043C23F003036B
:10A050001E4407EB060953E7524649E72946504696
:10A060001E465F46FEF70AFB554649E72946FEF7BE
:10A0700005FBFFE62744A9EB040949F001029F60B4
:10A080007A6055F8043C03F001031C43404645F850
:10A09000044CF6F72AFEAA4644E7CBF81010E9680C
:10A0A000CBF81410242A10D029690BF118021035AE
:10A0B0001EE7AB688360EB68C360242A10D005F10B
:10A0C000100200F110032969CFE62A69CBF81820A5
:10A0D0006A69CBF81C20A9690BF12002183507E743
:10A0E0002B6903616B694361A96905F1180200F1ED
:10A0F0001803BAE652466EE7294650460193FEF72A
:10A10000BDFA019B6CE7CBF81010E968CBF814108E
:10A11000242A04D029690BF1180210355BE72A695B
:10A12000CBF818206A69CBF81C20A9690BF1200232
:10A13000183550E77408002038B5074C0023054651
:10A1400008462360F6F790FD431C00D038BD236815
:10A15000002BFBD02B6038BD20120020F8B500BFCB
:10A16000F8BC08BC9E467047F8B500BFF8BC08BCF8
:10A170009E4670474572726F7220696E2066696CE8
:10A1800065202573206C696E656E72202564210A36
:10A190000048562050756C7367656E657261746F08
:10A1A000722056302E310A476572616C6420456218
:10A1B0006D657220323031380A0A005450756C7364
:10A1C000653A2025640A5450756C73656672616D3A
:10A1D000653A2025640A54506572696F643A2025F7
:10A1E000640A0A002E2E2F6D61696E2E6370700056
:10A1F0000300000000440040120700001B000000A4
:10A200000048004012070000270000000014014031
:10A21000120800002B000000004C00401208000053
:10A22000320000000050004012080000360000001C
:10A2300000440040120700003900000000480040C0
:10A240001207000040000000007C004012080000DF
:10A25000470000000078004012080000560000008F
:10A26000007800401208000069000000001401405E
:10A2700012080000FFFF0000FFFFFFFF00000000CA
:10A2800000000000004C0040120800001600000012
:10A2900000100140120700001A00000000480040B2
:10A2A0001207000026000000001401401208000000
:10A2B0002A00000000480040120700002C000000A7
:10A2C000005000401208000035000000004400402B
:10A2D000120700003800000000480040120700008C
:10A2E00041000000007C004012080000480000000F
:10A2F000007800401208000057000000007800407D
:10A30000120800006E000000001401401208000056
:10A31000FFFF0000FFFFFFFF0000000050696E6DAF
:10A320006170206572726F723A2077726F6E67206B
:10A33000706F7274206E756D6265722E002F686F7B
:10A340006D652F6A656E6B696E732F6D6265645FF4
:10A350006A656E6B696E732F776F726B7370616372
:10A36000652F626D5F777261702F313638392F6DCE
:10A370006265642D6F732F746172676574732F54F7
:10A3800041524745545F53544D2F6770696F5F6169
:10A3900070692E630070696E20213D202850696E1F
:10A3A0004E616D65294E4300000000000000000072
:10A3B000B30B0008090C0008150C0008B50B0008C9
:10A3C0009F0B0008AF0B00086D0B0008AB0B0008DB
:10A3D000710B00087B0B0008A50B0008850B00081B
:10A3E0008B0B0008910B0008970B0008D90B000895
:10A3F0009D0B000840420F00200000002F686F6D89
:10A40000652F6A656E6B696E732F6D6265645F6A36
:10A41000656E6B696E732F776F726B7370616365B6
:10A420002F626D5F777261702F313638392F6D6210
:10A4300065642D6F732F706C6174666F726D2F6D14
:10A440006265645F72657461726765742E637070B3
:10A450000030203D3D20282A67756172645F6F627D
:10A460006A6563742026204358415F475541524432
:10A470005F4D41534B29004358415F47554152447A
:10A480005F494E49545F494E5F50524F47524553C2
:10A4900053203D3D20282A67756172645F6F626AB0
:10A4A0006563742026204358415F47554152445FFD
:10A4B0004D41534B29000000010000000200000044
:10A4C0000400000008000000100000002000000050
:10A4D00040000000800000000001000000020000B9
:10A4E0000004000000080000001000000020000030
:10A4F00000400000008000002F686F6D652F6A65C6
:10A500006E6B696E732F6D6265645F6A656E6B69F1
:10A510006E732F776F726B73706163652F626D5FFF
:10A52000777261702F313638392F6D6265642D6F07
:10A53000732F746172676574732F54415247455489
:10A540005F53544D2F70696E6D61702E63004361CF
:10A550006E6E6F7420696E697469616C697A6520CA
:10A560005541525420776974682062617564207285
:10A570006174652025750A002F686F6D652F6A6507
:10A580006E6B696E732F6D6265645F6A656E6B6971
:10A590006E732F776F726B73706163652F626D5F7F
:10A5A000777261702F313638392F6D6265642D6F87
:10A5B000732F746172676574732F54415247455409
:10A5C0005F53544D2F73657269616C5F6170692EC2
:10A5D00063006F626A5F732D3E7561727420213D66
:10A5E0002028554152544E616D65294E43004572F5
:10A5F000726F723A206E65772073657269616C20A4
:10A600006F626A656374206973207573696E672071
:10A6100073616D6520554152542061732053544439
:10A62000494F006F626A5F732D3E696E64657820E2
:10A630003E3D2030000104020800101010041010EC
:10A6400010021010100800000000000000000102BD
:10A6500003040607080900000000010203040000CB
:10A6600068A60008780D0020D5300008D930000811
:10A670001531000829310008E530000801310008D3
:10A68000690F00082F686F6D652F6A656E6B696EC4
:10A69000732F6D6265645F6A656E6B696E732F7789
:10A6A0006F726B73706163652F626D5F777261703B
:10A6B0002F313638392F6D6265642D6F732F6861C5
:10A6C0006C2F6D6265645F7469636B65725F617046
:10A6D000692E630070696E6D6170206D69732D6DF8
:10A6E000617463680070696E6D6170206E6F7420B4
:10A6F000666F756E6420666F72207065726970682F
:10A700006572616C00636F756C64206E6F7420708D
:10A71000696E6F7574002F686F6D652F6A656E6B5B
:10A72000696E732F6D6265645F6A656E6B696E73C7
:10A730002F776F726B73706163652F626D5F7772D5
:10A7400061702F313638392F6D6265642D6F732F2C
:10A75000706C6174666F726D2F6D6265645F637299
:10A7600069746963616C2E63006372697469636103
:10A770006C5F73656374696F6E5F7265656E74722A
:10A78000616E63795F636F756E746572203C2055EE
:10A79000494E5433325F4D4158006D62656420610B
:10A7A00073736572746174696F6E206661696C653C
:10A7B000643A2025732C2066696C653A2025732C39
:10A7C000206C696E65202564200A002F686F6D6516
:10A7D0002F6A656E6B696E732F6D6265645F6A6563
:10A7E0006E6B696E732F776F726B73706163652F19
:10A7F000626D5F777261702F313638392F6D626507
:10A80000642D6F732F68616C2F6D6265645F637276
:10A8100069746963616C5F73656374696F6E5F61AE
:10A8200070692E6300216172655F696E7465727272
:10A83000757074735F656E61626C656428290000D1
:10A84000E0020020494E4600696E66004E414E000F
:10A850006E616E003031323334353637383941422B
:10A86000434445460000000030313233343536373A
:10A87000383961626364656600000000286E756C9B
:10A880006C29000030000000202020202020202003
:10A890002020202020202020303030303030303038
:10A8A0003030303030303030496E66696E697479DE
:10A8B000000000004E614E000080E03779C3414344
:10A8C000176E05B5B5B89346F5F93FE9034F384D16
:10A8D000321D30F94877825A3CBF737FDD4F1575C2
:10A8E000000000000000F03F0000000000002440D5
:10A8F00000000000000059400000000000408F40B0
:10A90000000000000088C34000000000006AF8401A
:10A910000000000080842E4100000000D01263413E
:10A920000000000084D797410000000065CDCD41B4
:10A93000000000205FA00242000000E87648374295
:10A94000000000A2941A6D42000040E59C30A24233
:10A950000000901EC4BCD64200003426F56B0C43A8
:10A960000080E03779C3414300A0D885573476434F
:10A9700000C84E676DC1AB43003D9160E458E143B0
:10A98000408CB5781DAF154450EFE2D6E41A4B4425
:10A9900092D54D06CFF08044F64AE1C7022DB5446A
:10A9A000B49DD9794378EA440500000019000000FD
:10A9B0007D0000002020202020202020202020209A
:10A9C00020202020303030303030303030303030C7
:10A9D0003030303043000000504F534958000000E1
:10A9E0002E000000002020202020202020202828C9
:10A9F000282828202020202020202020202020203F
:10AA0000202020202088101010101010101010107E
:10AA100010101010100404040404040404040410AE
:10AA2000101010101010414141414141010101013C
:10AA30000101010101010101010101010101010106
:10AA40001010101010104242424242420202020212
:10AA500002020202020202020202020202020202D6
:10AA60001010101020000000000000000000000086
:10AA700000000000000000000000000000000000D6
:10AA800000000000000000000000000000000000C6
:10AA900000000000000000000000000000000000B6
:10AAA00000000000000000000000000000000000A6
:10AAB0000000000000000000000000000000000096
:10AAC0000000000000000000000000000000000086
:10AAD0000000000000000000000000000000000076
:0CAAE0000000000000000000000000006A
:08AAEC001C57FF7F0100000070
:10AAF40000000000FFFFFFFFFFFFFFFFFFFFFFFF5E
:10AB04000000000000000000000000000000000041
:10AB14000000000000000000000000000000000031
:10AB24000000000000000000000000000000000021
:10AB34000000000000000000000000000000000011
:10AB44000000000000000000000000000000000001
:10AB540000000000000000000000000000000000F1
:10AB640000000000000000000000000000000000E1
:10AB740000000000000000000000000000000000D1
:10AB840000000000000000000000000000000000C1
:10AB940000000000000000000000000000000000B1
:10ABA40000000000000000000000000000000000A1
:10ABB4000000000000000000000000000000000091
:10ABC4000000000000000000000000000000000081
:10ABD4000000000000000000000000000000000071
:10ABE4000000000000000000000000000000000061
:10ABF4000000000024120020010000000024F400E2
:10AC040061340008E002002000000000CC050020B0
:10AC1400340600209C060020000000000000000014
:10AC24000000000000000000000000000000000020
:10AC34000000000000000000000000000000000010
:10AC44000000000000000000000000000000000000
:10AC540000000000000000000000000000000000F0
:10AC640000000000000000000000000000000000E0
:10AC740000000000000000000000000000000000D0
:10AC840000000000000000000000000000000000C0
:10AC940000000000000000000000000000000000B0
:10ACA40000000000000000000000000000000000A0
:10ACB40001000000000000000E33CDAB34126DE63D
:10ACC400ECDE05000B0000000000000000000000A6
:10ACD4000000000000000000000000000000000070
:10ACE4000000000000000000000000000000000060
:10ACF4000000000000000000000000000000000050
:10AD0400000000000000000000000000000000003F
:10B0340043000000000000000000000000000000C9
:10B0440000000000000000000000000000000000FC
:10B0540043000000000000000000000000000000A9
:10B0640000000000000000000000000000000000DC
:10B074004300000000000000000000000000000089
:10B0840000000000000000000000000000000000BC
:10B094004300000000000000000000000000000069
:10B0A400000000000000000000000000000000009C
:10B0B4004300000000000000000000000000000049
:10B0C400000000000000000000000000000000007C
:10B0D4004300000000000000000000000000000029
:10B0E400000000000000000000000000000000005C
:10B0F4004300000000000000000000000000000009
:10B10400000000000000000000000000000000003B
:10B11400398900085186000800000000E4A90008ED
:10B12400E0A9000864A8000864A8000864A800084E
:10B1340064A8000864A8000864A8000864A80008BB
:10B1440064A8000864A80008FFFFFFFFFFFFFFFFDB
:10B15400FFFFFFFFFFFF0000010041534349490087
:10B1640000000000000000000000000000000000DB
:10B174000000000000000000000041534349490062
:10B1840000000000000000000000000000000000BB
:10B1940000000000000000000000000000000000AB
:10B1A4000000000074080020740800207C080020BF
:10B1B4007C08002084080020840800208C080020DB
:10B1C4008C08002094080020940800209C0800208B
:10B1D4009C080020A4080020A4080020AC0800203B
:10B1E400AC080020B4080020B4080020BC080020EB
:10B1F400BC080020C4080020C4080020CC0800209B
:10B20400CC080020D4080020D4080020DC0800204A
:10B21400DC080020E4080020E4080020EC080020FA
:10B22400EC080020F4080020F4080020FC080020AA
:10B23400FC08002004090020040900200C09002057
:10B244000C09002014090020140900201C09002006
:10B254001C09002024090020240900202C090020B6
:10B264002C09002034090020340900203C09002066
:10B274003C09002044090020440900204C09002016
:10B284004C09002054090020540900205C090020C6
:10B294005C09002064090020640900206C09002076
:10B2A4006C09002074090020740900207C09002026
:10B2B4007C09002084090020840900208C090020D6
:10B2C4008C09002094090020940900209C09002086
:10B2D4009C090020A4090020A4090020AC09002036
:10B2E400AC090020B4090020B4090020BC090020E6
:10B2F400BC090020C4090020C4090020CC09002096
:10B30400CC090020D4090020D4090020DC09002045
:10B31400DC090020E4090020E4090020EC090020F5
:10B32400EC090020F4090020F4090020FC090020A5
:10B33400FC090020040A0020040A00200C0A002052
:10B344000C0A0020140A0020140A00201C0A002001
:10B354001C0A0020240A0020240A00202C0A0020B1
:10B364002C0A0020340A0020340A00203C0A002061
:10B374003C0A0020440A0020440A00204C0A002011
:10B384004C0A0020540A0020540A00205C0A0020C1
:10B394005C0A0020640A0020640A00206C0A002071
:10B3A4006C0A0020740A0020740A00207C0A002021
:10B3B4007C0A0020840A0020840A00208C0A0020D1
:10B3C4008C0A0020940A0020940A00209C0A002081
:10B3D4009C0A0020A40A0020A40A0020AC0A002031
:10B3E400AC0A0020B40A0020B40A0020BC0A0020E1
:10B3F400BC0A0020C40A0020C40A0020CC0A002091
:10B40400CC0A0020D40A0020D40A0020DC0A002040
:10B41400DC0A0020E40A0020E40A0020EC0A0020F0
:10B42400EC0A0020F40A0020F40A0020FC0A0020A0
:10B43400FC0A0020040B0020040B00200C0B00204D
:10B444000C0B0020140B0020140B00201C0B0020FC
:10B454001C0B0020240B0020240B00202C0B0020AC
:10B464002C0B0020340B0020340B00203C0B00205C
:10B474003C0B0020440B0020440B00204C0B00200C
:10B484004C0B0020540B0020540B00205C0B0020BC
:10B494005C0B0020640B0020640B00206C0B00206C
:10B4A4006C0B0020740B0020740B00207C0B00201C
:10B4B4007C0B0020840B0020840B00208C0B0020CC
:10B4C4008C0B0020940B0020940B00209C0B00207C
:10B4D4009C0B0020A40B0020A40B0020AC0B00202C
:10B4E400AC0B0020B40B0020B40B0020BC0B0020DC
:10B4F400BC0B0020C40B0020C40B0020CC0B00208C
:10B50400CC0B0020D40B0020D40B0020DC0B00203B
:10B51400DC0B0020E40B0020E40B0020EC0B0020EB
:10B52400EC0B0020F40B0020F40B0020FC0B00209B
:10B53400FC0B0020040C0020040C00200C0C002048
:10B544000C0C0020140C0020140C00201C0C0020F7
:10B554001C0C0020240C0020240C00202C0C0020A7
:10B564002C0C0020340C0020340C00203C0C002057
:10B574003C0C0020440C0020440C00204C0C002007
:10B584004C0C0020540C0020540C00205C0C0020B7
:10B594005C0C0020640C0020640C00206C0C002067
:10B5A4006C0C0020FFFFFFFF00000200ED0100080B
:08B5B40049050008C901000867
:040000050800056585
:00000001FF
